{
  "contractName": "DarkForestV1",
  "abi": [
    {
      "constant": true,
      "inputs": [],
      "name": "xSize",
      "outputs": [
        {
          "internalType": "uint256",
          "name": "",
          "type": "uint256"
        }
      ],
      "payable": false,
      "stateMutability": "view",
      "type": "function"
    },
    {
      "constant": true,
      "inputs": [],
      "name": "difficulty",
      "outputs": [
        {
          "internalType": "uint256",
          "name": "",
          "type": "uint256"
        }
      ],
      "payable": false,
      "stateMutability": "view",
      "type": "function"
    },
    {
      "constant": true,
      "inputs": [
        {
          "internalType": "uint256",
          "name": "",
          "type": "uint256"
        }
      ],
      "name": "planets",
      "outputs": [
        {
          "internalType": "uint256",
          "name": "locationId",
          "type": "uint256"
        },
        {
          "internalType": "address",
          "name": "owner",
          "type": "address"
        },
        {
          "internalType": "uint256",
          "name": "capacity",
          "type": "uint256"
        },
        {
          "internalType": "uint256",
          "name": "growth",
          "type": "uint256"
        },
        {
          "internalType": "uint256",
          "name": "population",
          "type": "uint256"
        },
        {
          "internalType": "uint256",
          "name": "lastUpdated",
          "type": "uint256"
        },
        {
          "internalType": "bool",
          "name": "coordinatesRevealed",
          "type": "bool"
        },
        {
          "internalType": "uint256",
          "name": "x",
          "type": "uint256"
        },
        {
          "internalType": "uint256",
          "name": "y",
          "type": "uint256"
        },
        {
          "internalType": "uint8",
          "name": "version",
          "type": "uint8"
        }
      ],
      "payable": false,
      "stateMutability": "view",
      "type": "function"
    },
    {
      "constant": true,
      "inputs": [
        {
          "internalType": "address",
          "name": "",
          "type": "address"
        }
      ],
      "name": "playerInitialized",
      "outputs": [
        {
          "internalType": "bool",
          "name": "",
          "type": "bool"
        }
      ],
      "payable": false,
      "stateMutability": "view",
      "type": "function"
    },
    {
      "constant": true,
      "inputs": [],
      "name": "ySize",
      "outputs": [
        {
          "internalType": "uint256",
          "name": "",
          "type": "uint256"
        }
      ],
      "payable": false,
      "stateMutability": "view",
      "type": "function"
    },
    {
      "constant": true,
      "inputs": [
        {
          "internalType": "uint256[2]",
          "name": "a",
          "type": "uint256[2]"
        },
        {
          "internalType": "uint256[2][2]",
          "name": "b",
          "type": "uint256[2][2]"
        },
        {
          "internalType": "uint256[2]",
          "name": "c",
          "type": "uint256[2]"
        },
        {
          "internalType": "uint256[3]",
          "name": "input",
          "type": "uint256[3]"
        }
      ],
      "name": "verifyMoveProof",
      "outputs": [
        {
          "internalType": "bool",
          "name": "",
          "type": "bool"
        }
      ],
      "payable": false,
      "stateMutability": "view",
      "type": "function"
    },
    {
      "constant": true,
      "inputs": [
        {
          "internalType": "uint256",
          "name": "",
          "type": "uint256"
        }
      ],
      "name": "planetIds",
      "outputs": [
        {
          "internalType": "uint256",
          "name": "",
          "type": "uint256"
        }
      ],
      "payable": false,
      "stateMutability": "view",
      "type": "function"
    },
    {
      "constant": true,
      "inputs": [
        {
          "internalType": "uint256",
          "name": "",
          "type": "uint256"
        }
      ],
      "name": "playerIds",
      "outputs": [
        {
          "internalType": "address",
          "name": "",
          "type": "address"
        }
      ],
      "payable": false,
      "stateMutability": "view",
      "type": "function"
    },
    {
      "constant": true,
      "inputs": [
        {
          "internalType": "uint256[2]",
          "name": "a",
          "type": "uint256[2]"
        },
        {
          "internalType": "uint256[2][2]",
          "name": "b",
          "type": "uint256[2][2]"
        },
        {
          "internalType": "uint256[2]",
          "name": "c",
          "type": "uint256[2]"
        },
        {
          "internalType": "uint256[1]",
          "name": "input",
          "type": "uint256[1]"
        }
      ],
      "name": "verifyInitProof",
      "outputs": [
        {
          "internalType": "bool",
          "name": "",
          "type": "bool"
        }
      ],
      "payable": false,
      "stateMutability": "view",
      "type": "function"
    },
    {
      "anonymous": false,
      "inputs": [
        {
          "indexed": false,
          "internalType": "address",
          "name": "player",
          "type": "address"
        },
        {
          "indexed": false,
          "internalType": "uint256",
          "name": "loc",
          "type": "uint256"
        },
        {
          "components": [
            {
              "internalType": "uint256",
              "name": "locationId",
              "type": "uint256"
            },
            {
              "internalType": "address",
              "name": "owner",
              "type": "address"
            },
            {
              "internalType": "uint256",
              "name": "capacity",
              "type": "uint256"
            },
            {
              "internalType": "uint256",
              "name": "growth",
              "type": "uint256"
            },
            {
              "internalType": "uint256",
              "name": "population",
              "type": "uint256"
            },
            {
              "internalType": "uint256",
              "name": "lastUpdated",
              "type": "uint256"
            },
            {
              "internalType": "bool",
              "name": "coordinatesRevealed",
              "type": "bool"
            },
            {
              "internalType": "uint256",
              "name": "x",
              "type": "uint256"
            },
            {
              "internalType": "uint256",
              "name": "y",
              "type": "uint256"
            },
            {
              "internalType": "uint8",
              "name": "version",
              "type": "uint8"
            }
          ],
          "indexed": false,
          "internalType": "struct DarkForestV1.Planet",
          "name": "planet",
          "type": "tuple"
        }
      ],
      "name": "PlayerInitialized",
      "type": "event"
    },
    {
      "anonymous": false,
      "inputs": [
        {
          "indexed": false,
          "internalType": "address",
          "name": "player",
          "type": "address"
        },
        {
          "indexed": false,
          "internalType": "uint256",
          "name": "oldLoc",
          "type": "uint256"
        },
        {
          "indexed": false,
          "internalType": "uint256",
          "name": "newLoc",
          "type": "uint256"
        },
        {
          "indexed": false,
          "internalType": "uint256",
          "name": "maxDist",
          "type": "uint256"
        },
        {
          "indexed": false,
          "internalType": "uint256",
          "name": "shipsMoved",
          "type": "uint256"
        },
        {
          "components": [
            {
              "internalType": "uint256",
              "name": "locationId",
              "type": "uint256"
            },
            {
              "internalType": "address",
              "name": "owner",
              "type": "address"
            },
            {
              "internalType": "uint256",
              "name": "capacity",
              "type": "uint256"
            },
            {
              "internalType": "uint256",
              "name": "growth",
              "type": "uint256"
            },
            {
              "internalType": "uint256",
              "name": "population",
              "type": "uint256"
            },
            {
              "internalType": "uint256",
              "name": "lastUpdated",
              "type": "uint256"
            },
            {
              "internalType": "bool",
              "name": "coordinatesRevealed",
              "type": "bool"
            },
            {
              "internalType": "uint256",
              "name": "x",
              "type": "uint256"
            },
            {
              "internalType": "uint256",
              "name": "y",
              "type": "uint256"
            },
            {
              "internalType": "uint8",
              "name": "version",
              "type": "uint8"
            }
          ],
          "indexed": false,
          "internalType": "struct DarkForestV1.Planet",
          "name": "fromPlanet",
          "type": "tuple"
        },
        {
          "components": [
            {
              "internalType": "uint256",
              "name": "locationId",
              "type": "uint256"
            },
            {
              "internalType": "address",
              "name": "owner",
              "type": "address"
            },
            {
              "internalType": "uint256",
              "name": "capacity",
              "type": "uint256"
            },
            {
              "internalType": "uint256",
              "name": "growth",
              "type": "uint256"
            },
            {
              "internalType": "uint256",
              "name": "population",
              "type": "uint256"
            },
            {
              "internalType": "uint256",
              "name": "lastUpdated",
              "type": "uint256"
            },
            {
              "internalType": "bool",
              "name": "coordinatesRevealed",
              "type": "bool"
            },
            {
              "internalType": "uint256",
              "name": "x",
              "type": "uint256"
            },
            {
              "internalType": "uint256",
              "name": "y",
              "type": "uint256"
            },
            {
              "internalType": "uint8",
              "name": "version",
              "type": "uint8"
            }
          ],
          "indexed": false,
          "internalType": "struct DarkForestV1.Planet",
          "name": "toPlanet",
          "type": "tuple"
        }
      ],
      "name": "PlayerMoved",
      "type": "event"
    },
    {
      "constant": true,
      "inputs": [],
      "name": "getNPlanets",
      "outputs": [
        {
          "internalType": "uint256",
          "name": "",
          "type": "uint256"
        }
      ],
      "payable": false,
      "stateMutability": "view",
      "type": "function"
    },
    {
      "constant": true,
      "inputs": [],
      "name": "getNPlayers",
      "outputs": [
        {
          "internalType": "uint256",
          "name": "",
          "type": "uint256"
        }
      ],
      "payable": false,
      "stateMutability": "view",
      "type": "function"
    },
    {
      "constant": false,
      "inputs": [
        {
          "internalType": "uint256[2]",
          "name": "_a",
          "type": "uint256[2]"
        },
        {
          "internalType": "uint256[2][2]",
          "name": "_b",
          "type": "uint256[2][2]"
        },
        {
          "internalType": "uint256[2]",
          "name": "_c",
          "type": "uint256[2]"
        },
        {
          "internalType": "uint256[1]",
          "name": "_input",
          "type": "uint256[1]"
        }
      ],
      "name": "initializePlayer",
      "outputs": [],
      "payable": false,
      "stateMutability": "nonpayable",
      "type": "function"
    },
    {
      "constant": false,
      "inputs": [
        {
          "internalType": "uint256[2]",
          "name": "_a",
          "type": "uint256[2]"
        },
        {
          "internalType": "uint256[2][2]",
          "name": "_b",
          "type": "uint256[2][2]"
        },
        {
          "internalType": "uint256[2]",
          "name": "_c",
          "type": "uint256[2]"
        },
        {
          "internalType": "uint256[4]",
          "name": "_input",
          "type": "uint256[4]"
        }
      ],
      "name": "moveUninhabited",
      "outputs": [],
      "payable": false,
      "stateMutability": "nonpayable",
      "type": "function"
    },
    {
      "constant": false,
      "inputs": [
        {
          "internalType": "uint256[2]",
          "name": "_a",
          "type": "uint256[2]"
        },
        {
          "internalType": "uint256[2][2]",
          "name": "_b",
          "type": "uint256[2][2]"
        },
        {
          "internalType": "uint256[2]",
          "name": "_c",
          "type": "uint256[2]"
        },
        {
          "internalType": "uint256[4]",
          "name": "_input",
          "type": "uint256[4]"
        }
      ],
      "name": "moveFriendly",
      "outputs": [],
      "payable": false,
      "stateMutability": "nonpayable",
      "type": "function"
    },
    {
      "constant": false,
      "inputs": [
        {
          "internalType": "uint256[2]",
          "name": "_a",
          "type": "uint256[2]"
        },
        {
          "internalType": "uint256[2][2]",
          "name": "_b",
          "type": "uint256[2][2]"
        },
        {
          "internalType": "uint256[2]",
          "name": "_c",
          "type": "uint256[2]"
        },
        {
          "internalType": "uint256[4]",
          "name": "_input",
          "type": "uint256[4]"
        }
      ],
      "name": "moveEnemy",
      "outputs": [],
      "payable": false,
      "stateMutability": "nonpayable",
      "type": "function"
    }
  ],
  "bytecode": "0x6080604052610800600055610800600155611000600255620186a06003556064600455605060055534801561003357600080fd5b50614462806100436000396000f3fe608060405234801561001057600080fd5b50600436106100f55760003560e01c80636fa678ed11610097578063ad48909111610066578063ad4890911461027b578063c012b112146102ab578063c68b8126146102db578063e211c072146102f9576100f5565b80636fa678ed14610209578063717be3c81461022557806380785512146102415780638a05b3291461025d576100f5565b8063274ee0bf116100d3578063274ee0bf1461016f57806337341c9e1461019f578063525d705a146101bb5780635a648465146101d9576100f5565b8063096b3cd9146100fa57806319cae4621461011857806326c1e75014610136575b600080fd5b610102610329565b60405161010f9190614122565b60405180910390f35b61012061032f565b60405161012d9190614122565b60405180910390f35b610150600480360361014b9190810190613c28565b610335565b6040516101669a9998979695949392919061413d565b60405180910390f35b61018960048036036101849190810190613ad0565b6103c3565b6040516101969190614047565b60405180910390f35b6101b960048036036101b49190810190613bc3565b6103e3565b005b6101c3610555565b6040516101d09190614122565b60405180910390f35b6101f360048036036101ee9190810190613b5e565b61055b565b6040516102009190614047565b60405180910390f35b610223600480360361021e9190810190613bc3565b6105f7565b005b61023f600480360361023a9190810190613af9565b610855565b005b61025b60048036036102569190810190613bc3565b610a0f565b005b610265610bd4565b6040516102729190614122565b60405180910390f35b61029560048036036102909190810190613c28565b610be1565b6040516102a29190614122565b60405180910390f35b6102c560048036036102c09190810190613c28565b610c02565b6040516102d29190613f83565b60405180910390f35b6102e3610c3e565b6040516102f09190614122565b60405180910390f35b610313600480360361030e9190810190613af9565b610c4b565b6040516103209190614047565b60405180910390f35b60005481565b60025481565b60076020528060005260406000206000915090508060000154908060010160009054906101000a900473ffffffffffffffffffffffffffffffffffffffff16908060020154908060030154908060040154908060050154908060060160009054906101000a900460ff16908060070154908060080154908060090160009054906101000a900460ff1690508a565b60096020528060005260406000206000915054906101000a900460ff1681565b6103ef84848484610ce7565b600033905060008260006004811061040357fe5b6020020151905060008360016004811061041957fe5b6020020151905060008460026004811061042f57fe5b6020020151905060008560036004811061044557fe5b602002015190508473ffffffffffffffffffffffffffffffffffffffff1661046c84610e5b565b73ffffffffffffffffffffffffffffffffffffffff161461048c57600080fd5b80600760008681526020019081526020016000206004016000828254039250508190555060006104bc8284610eb0565b90508060076000868152602001908152602001600020600401600082825401925050819055507f7dca124c440606f50147d3d0ac849a64b9d2b920972cc52446b655c8f08037298686868686600760008c8152602001908152602001600020600760008c81526020019081526020016000206040516105419796959493929190613fd6565b60405180910390a150505050505050505050565b60015481565b60006060600360405190808252806020026020018201604052801561058f5781602001602082028038833980820191505090505b50905060008090505b60038110156105d7578381600381106105ad57fe5b60200201518282815181106105be57fe5b6020026020010181815250508080600101915050610598565b506105ec868686846105e7610ed8565b611395565b915050949350505050565b61060384848484610ce7565b600033905060008260006004811061061757fe5b6020020151905060008360016004811061062d57fe5b6020020151905060008460026004811061064357fe5b6020020151905060008560036004811061065957fe5b60200201519050600061066b84610e5b565b9050600073ffffffffffffffffffffffffffffffffffffffff168173ffffffffffffffffffffffffffffffffffffffff16141580156106d657508573ffffffffffffffffffffffffffffffffffffffff168173ffffffffffffffffffffffffffffffffffffffff1614155b6106df57600080fd5b816007600087815260200190815260200160002060040160008282540392505081905550600061070f8385610eb0565b90508060076000878152602001908152602001600020600401541115610758578060076000878152602001908152602001600020600401600082825403925050819055506107e1565b866007600087815260200190815260200160002060010160006101000a81548173ffffffffffffffffffffffffffffffffffffffff021916908373ffffffffffffffffffffffffffffffffffffffff1602179055506007600086815260200190815260200160002060040154810360076000878152602001908152602001600020600401819055505b7f7dca124c440606f50147d3d0ac849a64b9d2b920972cc52446b655c8f08037298787878787600760008d8152602001908152602001600020600760008d81526020019081526020016000206040516108409796959493929190613fd6565b60405180910390a15050505050505050505050565b61086184848484610c4b565b61086a57600080fd5b600033905060008260006001811061087e57fe5b60200201519050600960008373ffffffffffffffffffffffffffffffffffffffff1673ffffffffffffffffffffffffffffffffffffffff16815260200190815260200160002060009054906101000a900460ff16156108dc57600080fd5b6108e581611516565b156108ef57600080fd5b60088290806001815401808255809150509060018203906000526020600020016000909192909190916101000a81548173ffffffffffffffffffffffffffffffffffffffff021916908373ffffffffffffffffffffffffffffffffffffffff160217905550506001600960008473ffffffffffffffffffffffffffffffffffffffff1673ffffffffffffffffffffffffffffffffffffffff16815260200190815260200160002060006101000a81548160ff0219169083151502179055506109ba81836161a8611539565b7fd99bc8795c384987a9563bba638f74e5d883674edb2e470e61d7330139b099e28282600760008581526020019081526020016000206040516109ff93929190613f9e565b60405180910390a1505050505050565b610a1b84848484610ce7565b6000339050600082600060048110610a2f57fe5b60200201519050600083600160048110610a4557fe5b60200201519050600084600260048110610a5b57fe5b60200201519050600085600360048110610a7157fe5b60200201519050610a81836116cb565b15610a8b57600080fd5b610a9483611516565b610aa557610aa483866000611539565b5b8060076000868152602001908152602001600020600401600082825403925050819055506000610ad58284610eb0565b9050806007600086815260200190815260200160002060040160008282540192505081905550600760008581526020019081526020016000206002015460076000868152602001908152602001600020600401541115610b6157600760008581526020019081526020016000206002015460076000868152602001908152602001600020600401819055505b7f7dca124c440606f50147d3d0ac849a64b9d2b920972cc52446b655c8f08037298686868686600760008c8152602001908152602001600020600760008c8152602001908152602001600020604051610bc09796959493929190613fd6565b60405180910390a150505050505050505050565b6000600880549050905090565b60068181548110610bee57fe5b906000526020600020016000915090505481565b60088181548110610c0f57fe5b906000526020600020016000915054906101000a900473ffffffffffffffffffffffffffffffffffffffff1681565b6000600680549050905090565b600060606001604051908082528060200260200182016040528015610c7f5781602001602082028038833980820191505090505b50905060008090505b6001811015610cc757838160018110610c9d57fe5b6020020151828281518110610cae57fe5b6020026020010181815250508080600101915050610c88565b50610cdc86868684610cd761175c565b611395565b915050949350505050565b610cef613692565b60008090505b6003811015610d3157828160048110610d0a57fe5b6020020151828260038110610d1b57fe5b6020020181815250508080600101915050610cf5565b50610d3e85858584611b39565b6000339050600083600060048110610d5257fe5b60200201519050600084600160048110610d6857fe5b60200201519050600085600360048110610d7e57fe5b60200201519050600960008573ffffffffffffffffffffffffffffffffffffffff1673ffffffffffffffffffffffffffffffffffffffff16815260200190815260200160002060009054906101000a900460ff16610ddb57600080fd5b8373ffffffffffffffffffffffffffffffffffffffff16610dfb84610e5b565b73ffffffffffffffffffffffffffffffffffffffff1614610e1b57600080fd5b610e2483611ba0565b610e2d82611ba0565b8060076000858152602001908152602001600020600401541015610e5057600080fd5b505050505050505050565b6000610e66826116cb565b610e71576000610ea9565b6007600083815260200190815260200160002060010160009054906101000a900473ffffffffffffffffffffffffffffffffffffffff165b9050919050565b600080610ec36005548460055401611cbd565b9050610ecf8185611d25565b91505092915050565b610ee06136b4565b60405180604001604052807e7f77a9a7a609e7343abd7960545efdeea3a24d9e6c4470f351925fdbaff35481526020017f2a389b8f9a79f7c5695d2a253a404f6107a84d60ced22c1cd62298c094ae88978152508160000181905250604051806040016040528060405180604001604052807f29fb2986f6e8e502abbafa6baf7351fb7a4f2ffff236e16d0e65cc3b41240bae81526020017f2c18e713eb081e27bf2bfccdb206a6ea10cfaf53945ec68cc15888aeabcc42d6815250815260200160405180604001604052807f1da2db4ee373a94ba68d10345b7e05a674620b6fbc3786cf029bd5a85385624e81526020017f2bba87cb502d313ee3b3cd8297cd6de608e8214c3e202f3ad44460011c888c1d8152508152508160200181905250604051806040016040528060405180604001604052807e0baf616fc251b876942d17aa7dcc5915a678fc4790429e094d8a3a22f97f0a81526020017f1310edb838a9432d53d6e2b84f1971f428ad15906835652eb8f8a751376a1dd1815250815260200160405180604001604052807f1ad3c60b4c281d6c623001ca3badf67c8c4848a142bd8b6234656971e05edda481526020017f17215770bc341a46d30506db88a3173bbd86586762cdfa1a8a59e7c3b3cd49e38152508152508160400181905250604051806040016040528060405180604001604052807f05c2e60ddf9d5789be4e6713bd0e98ca23271ca43fb54ae4ff18e0f89ccd3fc081526020017f3041ef9fe15096ecab48c875947f2abda84795a0a55afc0ef063fe94fc49e348815250815260200160405180604001604052807f1f9ee41ec9035ae71175114c497eb748c1428b7a80cfb286980e1c12913da26b81526020017f20ecb82839c16053fc7975583b9dadf94ebae46088373cbfc52a5482a13f04f2815250815250816060018190525060046040519080825280602002602001820160405280156111c557816020015b6111b26136fb565b8152602001906001900390816111aa5790505b50816080018190525060405180604001604052807f157cfbc38d56588b102ea6a9f40be2d559da9ace818ff0a20e2caeb2ffd825a981526020017f21a8440f340ff47af5061f30291a8c16ff860fce34c64bd00362fd80b0275248815250816080015160008151811061123457fe5b602002602001018190525060405180604001604052807f0628f17f853da807d7fa396e79ff955622930c71d0cd6eb7b2e16cf1c37aa52481526020017f2f2d6f75deb7b3398c3ef39e6b9627cf44495e5d64c29ec04e9211a07f06dadd81525081608001516001815181106112a557fe5b602002602001018190525060405180604001604052807f149fbb91ea4a1b8a3e5c2787312a376db5edc9567f5f4ea4e7795620ccc8dea681526020017f267209bcb923550c238014fca202add69c85fdf634b5b4f1f315d98920a29f83815250816080015160028151811061131657fe5b602002602001018190525060405180604001604052807f29a9120beaaee96fbf8b155c3e2baab5b6f70c658e8c14a8f6b6f28e5ffdb8d881526020017f0ec5ff746ed468d3158abd2d1380f6a0817d8fd6723264bbec6f6a7fe1342509815250816080015160038151811061138757fe5b602002602001018190525090565b600061139f613715565b6040518060400160405280886000600281106113b757fe5b60200201518152602001886001600281106113ce57fe5b60200201518152508160000181905250604051806040016040528060405180604001604052808960006002811061140157fe5b602002015160006002811061141257fe5b602002015181526020018960006002811061142957fe5b602002015160016002811061143a57fe5b6020020151815250815260200160405180604001604052808960016002811061145f57fe5b602002015160006002811061147057fe5b602002015181526020018960016002811061148757fe5b602002015160016002811061149857fe5b602002015181525081525081602001819052506040518060400160405280866000600281106114c357fe5b60200201518152602001866001600281106114da57fe5b6020020151815250816040018190525060006114f7858386611de0565b141561150757600191505061150d565b60009150505b95945050505050565b600080600760008481526020019081526020016000206000015414159050919050565b61154283611f9b565b61154b57600080fd5b6040518061014001604052808481526020018373ffffffffffffffffffffffffffffffffffffffff168152602001600354815260200160045481526020018281526020014281526020016000151581526020016000815260200160008152602001600160ff16815250600760008581526020019081526020016000206000820151816000015560208201518160010160006101000a81548173ffffffffffffffffffffffffffffffffffffffff021916908373ffffffffffffffffffffffffffffffffffffffff16021790555060408201518160020155606082015181600301556080820151816004015560a0820151816005015560c08201518160060160006101000a81548160ff02191690831515021790555060e0820151816007015561010082015181600801556101208201518160090160006101000a81548160ff021916908360ff1602179055509050506006839080600181540180825580915050906001820390600052602060002001600090919290919091505550505050565b60008073ffffffffffffffffffffffffffffffffffffffff166007600084815260200190815260200160002060010160009054906101000a900473ffffffffffffffffffffffffffffffffffffffff1673ffffffffffffffffffffffffffffffffffffffff1614158061175557506000600760008481526020019081526020016000206004015414155b9050919050565b6117646136b4565b60405180604001604052807f29c31a30518f53985759594923e36a6e5c90b733636360fcf2dc5903f45270fb81526020017f0c6f7a4947f30295bae5baf8d11c123ed4c00f5953c2deb0b5df33474894a2628152508160000181905250604051806040016040528060405180604001604052807f2a8a52bc5e27a78001c60943a260bdf0e31048bb24870cf94ea31acf7fb6ed2e81526020017f29924af13c69555e4e66bd8ee02f9994c6ee75d7e563e16c8fb58fa269e13397815250815260200160405180604001604052807f1a33ba6ac5c58f020a2ed484d184ca0816b43818b273d0393ed64b9df1b3605081526020017f15da15bf526f0108502fcdfa097ec71f8036e869f1be09319f5950a6990e4ab38152508152508160200181905250604051806040016040528060405180604001604052807f1110b5924b22a106ffc0cce08b3b85c77e4c0b82f47d3b28601e88a33da4666781526020017f056b937deaa2a15fb4f4f7d5f379ed64fa321e2a2e4a1376bbe52bd4382f71d6815250815260200160405180604001604052807f147b8761c4f40e11032da2cdbf5ef247074ec6d4699d13a4341725083697193f81526020017f187e9d3a52b1d6ea1f1459edfe0714ea1221581d6bf8d7528c3dd363b787d66d8152508152508160400181905250604051806040016040528060405180604001604052807f01c5a961dda9a35a6f9add1f66639909bb6179b1136f0a721d3fd84156a3178b81526020017f13ff0916f1a7e9f4f6bd4816874a4ccc1b567a63d0f1781fc0d5e8157ed4cddc815250815260200160405180604001604052807f180f9c6e63ef86aa79b27bcf73ae9c3fa0082ecce90512bf49deda6c0d0e8d1281526020017f09b700236ad96566363b128fb1d6ed3c698ba8174b6858ff6eabf39e9ee13ab481525081525081606001819052506002604051908082528060200260200182016040528015611a4b57816020015b611a386136fb565b815260200190600190039081611a305790505b50816080018190525060405180604001604052807f0794a517ebc0717484453fa65303b6f84681073215c318d655eb861258059e2081526020017f2169c47c4fcf2a4d000ea69ec2209b4d1fa5d38c113be2c2aecbede9dcba71378152508160800151600081518110611aba57fe5b602002602001018190525060405180604001604052807f2e47dedb86a4db62c89fbffce2bb3e23b1c980a94b9c934e547f460e3506fa9b81526020017f2f8201ef95da05fa02bcf8e01b93417fb46a1d82b91f995e875f9a1998b12bf08152508160800151600181518110611b2b57fe5b602002602001018190525090565b611b41613692565b60008090505b6003811015611b8357828160038110611b5c57fe5b6020020151828260038110611b6d57fe5b6020020181815250508080600101915050611b47565b50611b908585858461055b565b611b9957600080fd5b5050505050565b611ba9816116cb565b611bb257611cba565b6000600760008381526020019081526020016000209050600081600401541415611bdc5750611cba565b60008160050154420390506000611bf36001611fd2565b905060008284600301546004020290506000611c1b611c16838760020154611cbd565b611ff5565b90506000611c2882612035565b90506000611c3e87600201548860040154611cbd565b90506000611c4c82876120ae565b90506000611c5a8483612115565b90506000611c688883612180565b90506000611c798b60020154611fd2565b90506000611c8f611c8a83856121e7565b61226a565b90508067ffffffffffffffff168c60040181905550428c600501819055505050505050505050505050505b50565b600080821415611ccc57600080fd5b6000611cd8848461228b565b90506f7fffffffffffffffffffffffffffffff6fffffffffffffffffffffffffffffffff16816fffffffffffffffffffffffffffffffff161115611d1b57600080fd5b8091505092915050565b600080821415611d385760009050611dda565b600083600f0b1215611d4957600080fd5b600060406fffffffffffffffffffffffffffffffff841685600f0b02901c90506000608084901c85600f0b02905077ffffffffffffffffffffffffffffffffffffffffffffffff811115611d9c57600080fd5b604081901b9050817fffffffffffffffffffffffffffffffffffffffffffffffffffffffffffffffff03811115611dd257600080fd5b818101925050505b92915050565b6000807f30644e72e131a029b85045b68181585d2833e84879b9709143e1f593f00000019050826080015151600186510114611e51576040517f08c379a0000000000000000000000000000000000000000000000000000000008152600401611e4890614062565b60405180910390fd5b611e59613748565b6040518060400160405280600081526020016000815250905060008090505b8651811015611f255782878281518110611e8e57fe5b602002602001015110611ed6576040517f08c379a0000000000000000000000000000000000000000000000000000000008152600401611ecd906140a2565b60405180910390fd5b611f1682611f1187608001516001850181518110611ef057fe5b60200260200101518a8581518110611f0457fe5b602002602001015161241b565b6124e3565b91508080600101915050611e78565b50611f48818560800151600081518110611f3b57fe5b60200260200101516124e3565b9050611f7e611f5a86600001516125ca565b8660200151866000015187602001518589604001518b604001518b60600151612664565b611f8d57600192505050611f94565b6000925050505b9392505050565b60006002547f30644e72e131a029b85045b68181585d2833e84879b9709143e1f593f000000181611fc857fe5b0482109050919050565b6000677fffffffffffffff821115611fe957600080fd5b604082901b9050919050565b60007fffffffffffffffffffffffffffffffff80000000000000000000000000000000600f0b82600f0b141561202a57600080fd5b816000039050919050565b60006840000000000000000082600f0b1261204f57600080fd5b7fffffffffffffffffffffffffffffffffffffffffffffffc0000000000000000082600f0b121561208357600090506120a9565b6120a66080700171547652b82fe1777d0ffda0d23a7d1284600f0b02901d6127c8565b90505b919050565b60008082600f0b84600f0b0390507fffffffffffffffffffffffffffffffff80000000000000000000000000000000600f0b811215801561210257506f7fffffffffffffffffffffffffffffff600f0b8113155b61210b57600080fd5b8091505092915050565b600080604083600f0b85600f0b02901d90507fffffffffffffffffffffffffffffffff80000000000000000000000000000000600f0b811215801561216d57506f7fffffffffffffffffffffffffffffff600f0b8113155b61217657600080fd5b8091505092915050565b60008082600f0b84600f0b0190507fffffffffffffffffffffffffffffffff80000000000000000000000000000000600f0b81121580156121d457506f7fffffffffffffffffffffffffffffff600f0b8113155b6121dd57600080fd5b8091505092915050565b60008082600f0b14156121f957600080fd5b600082600f0b604085600f0b901b8161220e57fe5b0590507fffffffffffffffffffffffffffffffff80000000000000000000000000000000600f0b811215801561225757506f7fffffffffffffffffffffffffffffff600f0b8113155b61226057600080fd5b8091505092915050565b60008082600f0b121561227c57600080fd5b604082600f0b901d9050919050565b60008082141561229a57600080fd5b600077ffffffffffffffffffffffffffffffffffffffffffffffff84116122d05782604085901b816122c857fe5b0490506123f4565b600060c09050600060ff90505b808210156123325760006001828401901c905060008188901c9050600081141561230c5760018203925061232b565b60018111156123205760018201935061232a565b8193505050612332565b5b50506122dd565b600160bf830360018703901c018260ff0387901b8161234d57fe5b0492506fffffffffffffffffffffffffffffffff83111561236d57600080fd5b6000608086901c8402905060006fffffffffffffffffffffffffffffffff871685029050600060c089901c9050600060408a901b9050828110156123b2576001820391505b8281039050608084901b9250828110156123cd576001820391505b8281039050608084901c82146123df57fe5b8881816123e857fe5b04870196505050505050505b6fffffffffffffffffffffffffffffffff81111561241157600080fd5b8091505092915050565b612423613748565b61242b613692565b83600001518160006003811061243d57fe5b60200201818152505083602001518160016003811061245857fe5b602002018181525050828160026003811061246f57fe5b602002018181525050600060608360808460076107d05a03fa905080600081146124985761249a565bfe5b50806124db576040517f08c379a00000000000000000000000000000000000000000000000000000000081526004016124d290614082565b60405180910390fd5b505092915050565b6124eb613748565b6124f3613762565b83600001518160006004811061250557fe5b60200201818152505083602001518160016004811061252057fe5b60200201818152505082600001518160026004811061253b57fe5b60200201818152505082602001518160036004811061255657fe5b602002018181525050600060608360c08460066107d05a03fa9050806000811461257f57612581565bfe5b50806125c2576040517f08c379a00000000000000000000000000000000000000000000000000000000081526004016125b9906140e2565b60405180910390fd5b505092915050565b6125d2613748565b60007f30644e72e131a029b85045b68181585d97816a916871ca8d3c208c16d87cfd4790506000836000015114801561260f575060008360200151145b1561263357604051806040016040528060008152602001600081525091505061265f565b6040518060400160405280846000015181526020018285602001518161265557fe5b0683038152509150505b919050565b6000606060046040519080825280602002602001820160405280156126a357816020015b6126906136fb565b8152602001906001900390816126885790505b509050606060046040519080825280602002602001820160405280156126e357816020015b6126d0613784565b8152602001906001900390816126c85790505b5090508a826000815181106126f457fe5b6020026020010181905250888260018151811061270d57fe5b6020026020010181905250868260028151811061272657fe5b6020026020010181905250848260038151811061273f57fe5b6020026020010181905250898160008151811061275857fe5b6020026020010181905250878160018151811061277157fe5b6020026020010181905250858160028151811061278a57fe5b602002602001018190525083816003815181106127a357fe5b60200260200101819052506127b882826133d3565b9250505098975050505050505050565b60006840000000000000000082600f0b126127e257600080fd5b7fffffffffffffffffffffffffffffffffffffffffffffffc0000000000000000082600f0b121561281657600090506133ce565b60006f80000000000000000000000000000000905060006780000000000000008416600f0b131561285c57608070016a09e667f3bcc908b2fb1366ea957d3e8202901c90505b60006740000000000000008416600f0b131561288d5760807001306fe0a31b7152de8d5a46305c85edec8202901c90505b60006720000000000000008416600f0b13156128be5760807001172b83c7d517adcdf7c8c50eb14a791f8202901c90505b60006710000000000000008416600f0b13156128ef57608070010b5586cf9890f6298b92b71842a983638202901c90505b60006708000000000000008416600f0b13156129205760807001059b0d31585743ae7c548eb68ca417fd8202901c90505b60006704000000000000008416600f0b1315612951576080700102c9a3e778060ee6f7caca4f7a29bde88202901c90505b60006702000000000000008416600f0b131561298257608070010163da9fb33356d84a66ae336dcdfa3f8202901c90505b60006701000000000000008416600f0b13156129b3576080700100b1afa5abcbed6129ab13ec11dc95438202901c90505b600066800000000000008416600f0b13156129e357608070010058c86da1c09ea1ff19d294cf2f679b8202901c90505b600066400000000000008416600f0b1315612a135760807001002c605e2e8cec506d21bfc89a23a00f8202901c90505b600066200000000000008416600f0b1315612a43576080700100162f3904051fa128bca9c55c31e5df8202901c90505b600066100000000000008416600f0b1315612a735760807001000b175effdc76ba38e31671ca9397258202901c90505b600066080000000000008416600f0b1315612aa3576080700100058ba01fb9f96d6cacd4b180917c3d8202901c90505b600066040000000000008416600f0b1315612ad357608070010002c5cc37da9491d0985c348c68e7b38202901c90505b600066020000000000008416600f0b1315612b035760807001000162e525ee054754457d59952920268202901c90505b600066010000000000008416600f0b1315612b3357608070010000b17255775c040618bf4a4ade83fc8202901c90505b6000658000000000008416600f0b1315612b625760807001000058b91b5bc9ae2eed81e9b7d4cfab8202901c90505b6000654000000000008416600f0b1315612b91576080700100002c5c89d5ec6ca4d7c8acc017b7c98202901c90505b6000652000000000008416600f0b1315612bc057608070010000162e43f4f831060e02d839a9d16d8202901c90505b6000651000000000008416600f0b1315612bef576080700100000b1721bcfc99d9f890ea069117638202901c90505b6000650800000000008416600f0b1315612c1e57608070010000058b90cf1e6d97f9ca14dbcc16288202901c90505b6000650400000000008416600f0b1315612c4d5760807001000002c5c863b73f016468f6bac5ca2b8202901c90505b6000650200000000008416600f0b1315612c7c576080700100000162e430e5a18f6119e3c02282a58202901c90505b6000650100000000008416600f0b1315612cab5760807001000000b1721835514b86e6d96efd1bfe8202901c90505b60006480000000008416600f0b1315612cd9576080700100000058b90c0b48c6be5df846c5b2ef8202901c90505b60006440000000008416600f0b1315612d0757608070010000002c5c8601cc6b9e94213c72737a8202901c90505b60006420000000008416600f0b1315612d355760807001000000162e42fff037df38aa2b219f068202901c90505b60006410000000008416600f0b1315612d6357608070010000000b17217fba9c739aa5819f44f98202901c90505b60006408000000008416600f0b1315612d915760807001000000058b90bfcdee5acd3c1cedc8238202901c90505b60006404000000008416600f0b1315612dbf576080700100000002c5c85fe31f35a6a30da1be508202901c90505b60006402000000008416600f0b1315612ded57608070010000000162e42ff0999ce3541b9fffcf8202901c90505b60006401000000008416600f0b1315612e1b576080700100000000b17217f80f4ef5aadda455548202901c90505b600063800000008416600f0b1315612e4857608070010000000058b90bfbf8479bd5a81b51ad8202901c90505b600063400000008416600f0b1315612e755760807001000000002c5c85fdf84bd62ae30a74cc8202901c90505b600063200000008416600f0b1315612ea2576080700100000000162e42fefb2fed257559bdaa8202901c90505b600063100000008416600f0b1315612ecf5760807001000000000b17217f7d5a7716bba4a9ae8202901c90505b600063080000008416600f0b1315612efc576080700100000000058b90bfbe9ddbac5e109cce8202901c90505b600063040000008416600f0b1315612f2957608070010000000002c5c85fdf4b15de6f17eb0d8202901c90505b600063020000008416600f0b1315612f565760807001000000000162e42fefa494f1478fde058202901c90505b600063010000008416600f0b1315612f8357608070010000000000b17217f7d20cf927c8e94c8202901c90505b6000628000008416600f0b1315612faf5760807001000000000058b90bfbe8f71cb4e4b33d8202901c90505b6000624000008416600f0b1315612fdb576080700100000000002c5c85fdf477b662b269458202901c90505b6000622000008416600f0b131561300757608070010000000000162e42fefa3ae53369388c8202901c90505b6000621000008416600f0b1315613033576080700100000000000b17217f7d1d351a389d408202901c90505b6000620800008416600f0b131561305f57608070010000000000058b90bfbe8e8b2d3d4ede8202901c90505b6000620400008416600f0b131561308b5760807001000000000002c5c85fdf4741bea6e77e8202901c90505b6000620200008416600f0b13156130b7576080700100000000000162e42fefa39fe95583c28202901c90505b6000620100008416600f0b13156130e35760807001000000000000b17217f7d1cfb72b45e18202901c90505b60006180008416600f0b131561310e576080700100000000000058b90bfbe8e7cc35c3f08202901c90505b60006140008416600f0b131561313957608070010000000000002c5c85fdf473e242ea388202901c90505b60006120008416600f0b13156131645760807001000000000000162e42fefa39f02b772c8202901c90505b60006110008416600f0b131561318f57608070010000000000000b17217f7d1cf7d83c1a8202901c90505b60006108008416600f0b13156131ba5760807001000000000000058b90bfbe8e7bdcbe2e8202901c90505b60006104008416600f0b13156131e5576080700100000000000002c5c85fdf473dea871f8202901c90505b60006102008416600f0b131561321057608070010000000000000162e42fefa39ef44d918202901c90505b60006101008416600f0b131561323b576080700100000000000000b17217f7d1cf79e9498202901c90505b600060808416600f0b131561326557608070010000000000000058b90bfbe8e7bce5448202901c90505b600060408416600f0b131561328f5760807001000000000000002c5c85fdf473de6eca8202901c90505b600060208416600f0b13156132b9576080700100000000000000162e42fefa39ef366f8202901c90505b600060108416600f0b13156132e35760807001000000000000000b17217f7d1cf79afa8202901c90505b600060088416600f0b131561330d576080700100000000000000058b90bfbe8e7bcd6d8202901c90505b600060048416600f0b131561333757608070010000000000000002c5c85fdf473de6b28202901c90505b600060028416600f0b13156133615760807001000000000000000162e42fefa39ef3588202901c90505b600060018416600f0b131561338b57608070010000000000000000b17217f7d1cf79ab8202901c90505b604083600f0b901d603f03600f0b8160008212156133a557fe5b901c90506f7fffffffffffffffffffffffffffffff600f0b8111156133c957600080fd5b809150505b919050565b60008151835114613419576040517f08c379a0000000000000000000000000000000000000000000000000000000008152600401613410906140c2565b60405180910390fd5b60008351905060006006820290506060816040519080825280602002602001820160405280156134585781602001602082028038833980820191505090505b50905060008090505b838110156135fe5786818151811061347557fe5b60200260200101516000015182600060068402018151811061349357fe5b6020026020010181815250508681815181106134ab57fe5b6020026020010151602001518260016006840201815181106134c957fe5b6020026020010181815250508581815181106134e157fe5b6020026020010151600001516000600281106134f957fe5b602002015182600260068402018151811061351057fe5b60200260200101818152505085818151811061352857fe5b60200260200101516000015160016002811061354057fe5b602002015182600360068402018151811061355757fe5b60200260200101818152505085818151811061356f57fe5b60200260200101516020015160006002811061358757fe5b602002015182600460068402018151811061359e57fe5b6020026020010181815250508581815181106135b657fe5b6020026020010151602001516001600281106135ce57fe5b60200201518260056006840201815181106135e557fe5b6020026020010181815250508080600101915050613461565b506136076137aa565b6000602082602086026020860160086107d05a03fa9050806000811461362c5761362e565bfe5b508061366f576040517f08c379a000000000000000000000000000000000000000000000000000000000815260040161366690614102565b60405180910390fd5b60008260006001811061367e57fe5b602002015114159550505050505092915050565b6040518060600160405280600390602082028038833980820191505090505090565b6040518060a001604052806136c76136fb565b81526020016136d4613784565b81526020016136e1613784565b81526020016136ee613784565b8152602001606081525090565b604051806040016040528060008152602001600081525090565b60405180606001604052806137286136fb565b8152602001613735613784565b81526020016137426136fb565b81525090565b604051806040016040528060008152602001600081525090565b6040518060800160405280600490602082028038833980820191505090505090565b60405180604001604052806137976137cc565b81526020016137a46137cc565b81525090565b6040518060200160405280600190602082028038833980820191505090505090565b6040518060400160405280600290602082028038833980820191505090505090565b6000813590506137fd816143f1565b92915050565b600082601f83011261381457600080fd5b600261382761382282614206565b6141d9565b9150818385604084028201111561383d57600080fd5b60005b8381101561386d578161385388826138eb565b845260208401935060408301925050600181019050613840565b5050505092915050565b600082601f83011261388857600080fd5b600161389b61389682614228565b6141d9565b915081838560208402820111156138b157600080fd5b60005b838110156138e157816138c78882613abb565b8452602084019350602083019250506001810190506138b4565b5050505092915050565b600082601f8301126138fc57600080fd5b600261390f61390a8261424a565b6141d9565b9150818385602084028201111561392557600080fd5b60005b83811015613955578161393b8882613abb565b845260208401935060208301925050600181019050613928565b5050505092915050565b600082601f83011261397057600080fd5b600261398361397e8261426c565b6141d9565b9150818385602084028201111561399957600080fd5b60005b838110156139c957816139af8882613abb565b84526020840193506020830192505060018101905061399c565b5050505092915050565b600082601f8301126139e457600080fd5b60036139f76139f28261428e565b6141d9565b91508183856020840282011115613a0d57600080fd5b60005b83811015613a3d5781613a238882613abb565b845260208401935060208301925050600181019050613a10565b5050505092915050565b600082601f830112613a5857600080fd5b6004613a6b613a66826142b0565b6141d9565b91508183856020840282011115613a8157600080fd5b60005b83811015613ab15781613a978882613abb565b845260208401935060208301925050600181019050613a84565b5050505092915050565b600081359050613aca81614408565b92915050565b600060208284031215613ae257600080fd5b6000613af0848285016137ee565b91505092915050565b6000806000806101208587031215613b1057600080fd5b6000613b1e8782880161395f565b9450506040613b2f87828801613803565b93505060c0613b408782880161395f565b925050610100613b5287828801613877565b91505092959194509250565b6000806000806101608587031215613b7557600080fd5b6000613b838782880161395f565b9450506040613b9487828801613803565b93505060c0613ba58782880161395f565b925050610100613bb7878288016139d3565b91505092959194509250565b6000806000806101808587031215613bda57600080fd5b6000613be88782880161395f565b9450506040613bf987828801613803565b93505060c0613c0a8782880161395f565b925050610100613c1c87828801613a47565b91505092959194509250565b600060208284031215613c3a57600080fd5b6000613c4884828501613abb565b91505092915050565b613c5a81614327565b82525050565b613c6981614327565b82525050565b613c7881614339565b82525050565b613c8781614339565b82525050565b6000613c9a6012836142d2565b91507f76657269666965722d6261642d696e70757400000000000000000000000000006000830152602082019050919050565b6000613cda6012836142d2565b91507f70616972696e672d6d756c2d6661696c656400000000000000000000000000006000830152602082019050919050565b6000613d1a601f836142d2565b91507f76657269666965722d6774652d736e61726b2d7363616c61722d6669656c64006000830152602082019050919050565b6000613d5a6016836142d2565b91507f70616972696e672d6c656e677468732d6661696c6564000000000000000000006000830152602082019050919050565b6000613d9a6012836142d2565b91507f70616972696e672d6164642d6661696c656400000000000000000000000000006000830152602082019050919050565b6000613dda6015836142d2565b91507f70616972696e672d6f70636f64652d6661696c656400000000000000000000006000830152602082019050919050565b61014082016000808301549050613e23816143b0565b613e306000860182613f47565b5060018301549050613e418161437c565b613e4e6020860182613c51565b5060028301549050613e5f816143b0565b613e6c6040860182613f47565b5060038301549050613e7d816143b0565b613e8a6060860182613f47565b5060048301549050613e9b816143b0565b613ea86080860182613f47565b5060058301549050613eb9816143b0565b613ec660a0860182613f47565b5060068301549050613ed781614396565b613ee460c0860182613c6f565b5060078301549050613ef5816143b0565b613f0260e0860182613f47565b5060088301549050613f13816143b0565b613f21610100860182613f47565b5060098301549050613f32816143ca565b613f40610120860182613f65565b5050505050565b613f5081614365565b82525050565b613f5f81614365565b82525050565b613f6e8161436f565b82525050565b613f7d8161436f565b82525050565b6000602082019050613f986000830184613c60565b92915050565b600061018082019050613fb46000830186613c60565b613fc16020830185613f56565b613fce6040830184613e0d565b949350505050565b600061032082019050613fec600083018a613c60565b613ff96020830189613f56565b6140066040830188613f56565b6140136060830187613f56565b6140206080830186613f56565b61402d60a0830185613e0d565b61403b6101e0830184613e0d565b98975050505050505050565b600060208201905061405c6000830184613c7e565b92915050565b6000602082019050818103600083015261407b81613c8d565b9050919050565b6000602082019050818103600083015261409b81613ccd565b9050919050565b600060208201905081810360008301526140bb81613d0d565b9050919050565b600060208201905081810360008301526140db81613d4d565b9050919050565b600060208201905081810360008301526140fb81613d8d565b9050919050565b6000602082019050818103600083015261411b81613dcd565b9050919050565b60006020820190506141376000830184613f56565b92915050565b600061014082019050614153600083018d613f56565b614160602083018c613c60565b61416d604083018b613f56565b61417a606083018a613f56565b6141876080830189613f56565b61419460a0830188613f56565b6141a160c0830187613c7e565b6141ae60e0830186613f56565b6141bc610100830185613f56565b6141ca610120830184613f74565b9b9a5050505050505050505050565b6000604051905081810181811067ffffffffffffffff821117156141fc57600080fd5b8060405250919050565b600067ffffffffffffffff82111561421d57600080fd5b602082029050919050565b600067ffffffffffffffff82111561423f57600080fd5b602082029050919050565b600067ffffffffffffffff82111561426157600080fd5b602082029050919050565b600067ffffffffffffffff82111561428357600080fd5b602082029050919050565b600067ffffffffffffffff8211156142a557600080fd5b602082029050919050565b600067ffffffffffffffff8211156142c757600080fd5b602082029050919050565b600082825260208201905092915050565b600073ffffffffffffffffffffffffffffffffffffffff82169050919050565b600060ff82169050919050565b6000819050919050565b600060ff82169050919050565b600061433282614345565b9050919050565b60008115159050919050565b600073ffffffffffffffffffffffffffffffffffffffff82169050919050565b6000819050919050565b600060ff82169050919050565b600061438f61438a836143e4565b6142e3565b9050919050565b60006143a96143a4836143e4565b614303565b9050919050565b60006143c36143be836143e4565b614310565b9050919050565b60006143dd6143d8836143e4565b61431a565b9050919050565b60008160001c9050919050565b6143fa81614327565b811461440557600080fd5b50565b61441181614365565b811461441c57600080fd5b5056fea365627a7a723158200aacc34d8e5fbe59d5e55a997534d77fc14c132fcc12d3ee18d9a9b09c8fcb4a6c6578706572696d656e74616cf564736f6c634300050b0040",
  "source": "pragma solidity ^0.5.8;\npragma experimental ABIEncoderV2;\nimport \"./Verifier.sol\";\nimport \"./ABDKMath64x64.sol\";\n\ncontract DarkForestV1 is Verifier {\n    using ABDKMath64x64 for *;\n\n    uint8 constant VERSION = 1;\n\n    uint public xSize = 2048;\n    uint public ySize = 2048;\n    uint public difficulty = 4096;\n    uint capacity = 100000; // in milliPopulation\n    uint growth = 100; // maximum growth rate, achieved at milliPops = 50000, in milliPopulation per second\n    uint moveDecayNumerator = 80;\n\n    uint256 constant LOCATION_ID_UB = 21888242871839275222246405745257275088548364400416034343698204186575808495617;\n\n    struct Planet {\n        uint locationId;\n        address owner;\n\n        uint capacity;\n        uint growth;\n        uint population;\n        uint lastUpdated;\n\n        bool coordinatesRevealed;\n        uint x;\n        uint y;\n\n        uint8 version;\n    }\n\n    event PlayerInitialized(address player, uint loc, Planet planet);\n    event PlayerMoved(address player, uint oldLoc, uint newLoc, uint maxDist, uint shipsMoved, Planet fromPlanet, Planet toPlanet);\n\n    uint[] public planetIds;\n    mapping (uint => Planet) public planets;\n    address[] public playerIds;\n    mapping (address => bool) public playerInitialized;\n    // TODO: how to query all planets owned by player?\n\n    function planetIsInitialized(uint _loc) private view returns (bool) {\n        return !(planets[_loc].locationId == 0);\n    }\n\n    function planetIsOccupied(uint _loc) private view returns (bool) {\n        return !(planets[_loc].owner == address(0)) || planets[_loc].population != 0;\n    }\n\n    function ownerIfOccupiedElseZero(uint _loc) private view returns (address) {\n        return planetIsOccupied(_loc) ? planets[_loc].owner : address(0);\n    }\n\n    function getNPlanets() public view returns (uint) {\n        return planetIds.length;\n    }\n\n    function getNPlayers() public view returns (uint) {\n        return playerIds.length;\n    }\n\n    function locationIdValid(uint _loc) private view returns (bool) {\n        return (_loc < (LOCATION_ID_UB / difficulty));\n    }\n\n    function initializePlanet(uint _loc, address _player, uint _population) private {\n        require (locationIdValid(_loc));\n        planets[_loc] = Planet(_loc, _player, capacity, growth, _population, now, false, 0, 0, 1);\n        planetIds.push(_loc);\n    }\n\n    function updatePopulation(uint _locationId) private {\n        // logistic growth: in T time, population p1 increases to population\n        // p2 = capacity / (1 + e^{-4 * growth * T / capacity} * ((capacity / p1) - 1))\n        if (!planetIsOccupied(_locationId)) {\n            return;\n        }\n        Planet storage planet = planets[_locationId];\n        // check for div by zero\n        if (planet.population == 0) {\n            return;\n        }\n        uint time_elapsed = now - planet.lastUpdated;\n\n        // 1\n        int128 one = ABDKMath64x64.fromUInt(1);\n\n        // e^{-4 * growth * T / capacity}\n        uint exponent_num_abs = 4 * planet.growth * time_elapsed;\n        int128 exponent = ABDKMath64x64.neg(ABDKMath64x64.divu(exponent_num_abs, planet.capacity));\n        int128 e_to_power_of_exponent = ABDKMath64x64.exp(exponent);\n\n        // (capacity / p1) - 1\n        int128 inv_pop_ratio = ABDKMath64x64.divu(planet.capacity, planet.population);\n        int128 inv_pop_ratio_minus_one = ABDKMath64x64.sub(inv_pop_ratio, one);\n\n        // denominator\n        int128 exp_times_ratio = ABDKMath64x64.mul(e_to_power_of_exponent, inv_pop_ratio_minus_one);\n        int128 denominator = ABDKMath64x64.add(one, exp_times_ratio);\n\n        // numerator\n        int128 numerator = ABDKMath64x64.fromUInt(planet.capacity);\n\n        // new population\n        uint64 new_pop = ABDKMath64x64.toUInt(ABDKMath64x64.div(numerator, denominator));\n        planet.population = uint (new_pop);\n\n        planet.lastUpdated = now;\n    }\n\n    function initializePlayer(\n        uint[2] memory _a,\n        uint[2][2] memory _b,\n        uint[2] memory _c,\n        uint[1] memory _input\n    ) public {\n        require(verifyInitProof(_a, _b, _c, _input));\n        address player = msg.sender;\n        uint loc = _input[0];\n        require(!playerInitialized[player]); // player doesn't have account\n        require (!planetIsInitialized(loc)); // loc was never owned\n\n        playerIds.push(player);\n        playerInitialized[player] = true;\n        initializePlanet(loc, player, 25000);\n\n        emit PlayerInitialized(player, loc, planets[loc]);\n    }\n\n    function moveShipsDecay(uint shipsMoved, uint dist) private view returns (uint) {\n        int128 decayRatio = ABDKMath64x64.divu(moveDecayNumerator, moveDecayNumerator + dist);\n        return ABDKMath64x64.mulu(decayRatio, shipsMoved);\n    }\n\n    function moveCheckproof(\n        uint[2] memory _a,\n        uint[2][2] memory _b,\n        uint[2] memory _c,\n        uint[3] memory _input\n    ) private view {\n        uint[3] memory input012;\n        for (uint i=0; i<input012.length; i++) {\n            input012[i] = _input[i];\n        }\n        require(verifyMoveProof(_a, _b, _c, input012));\n    }\n\n    function moveCommonChecks(\n        uint[2] memory _a,\n        uint[2][2] memory _b,\n        uint[2] memory _c,\n        uint[4] memory _input\n    ) private {\n        // check proof validity\n        uint[3] memory moveCheckproofInput;\n        for (uint i = 0; i < 3; i++) {\n            moveCheckproofInput[i] = _input[i];\n        }\n        moveCheckproof(_a, _b, _c, moveCheckproofInput);\n        // preliminary checks to ensure the move is not illegal\n        address player = msg.sender;\n        uint oldLoc = _input[0];\n        uint newLoc = _input[1];\n        uint shipsMoved = _input[3];\n\n        require(playerInitialized[player]); // player exists\n        require(ownerIfOccupiedElseZero(oldLoc) == player); // planet at oldLoc is occupied by player\n\n        updatePopulation(oldLoc);\n        updatePopulation(newLoc);\n        require(planets[oldLoc].population >= shipsMoved); // player can move at most as many ships as exist on oldLoc\n    }\n\n    function moveUninhabited(\n        uint[2] memory _a,\n        uint[2][2] memory _b,\n        uint[2] memory _c,\n        uint[4] memory _input\n    ) public {\n        moveCommonChecks(_a, _b, _c, _input);\n\n        address player = msg.sender;\n        uint oldLoc = _input[0];\n        uint newLoc = _input[1];\n        uint maxDist = _input[2];\n        uint shipsMoved = _input[3];\n\n        // planet at newLoc not occupied\n        require(!planetIsOccupied(newLoc));\n        if (!planetIsInitialized(newLoc)) {\n            initializePlanet(newLoc, player, 0);\n        }\n        planets[oldLoc].population -= shipsMoved;\n        uint shipsLanded = moveShipsDecay(shipsMoved, maxDist);\n        planets[newLoc].population += shipsLanded;\n        if (planets[newLoc].population > planets[newLoc].capacity) {\n            planets[newLoc].population = planets[newLoc].capacity;\n        }\n\n        emit PlayerMoved(player, oldLoc, newLoc, maxDist, shipsMoved, planets[oldLoc], planets[newLoc]);\n    }\n\n    function moveFriendly(\n        uint[2] memory _a,\n        uint[2][2] memory _b,\n        uint[2] memory _c,\n        uint[4] memory _input\n    ) public {\n        moveCommonChecks(_a, _b, _c, _input);\n\n        address player = msg.sender;\n        uint oldLoc = _input[0];\n        uint newLoc = _input[1];\n        uint maxDist = _input[2];\n        uint shipsMoved = _input[3];\n\n        // planet at newLoc is occupied by player\n        require(ownerIfOccupiedElseZero(newLoc) == player);\n\n        planets[oldLoc].population -= shipsMoved;\n        uint shipsLanded = moveShipsDecay(shipsMoved, maxDist);\n        planets[newLoc].population += shipsLanded;\n        emit PlayerMoved(player, oldLoc, newLoc, maxDist, shipsMoved, planets[oldLoc], planets[newLoc]);\n    }\n\n    // TODO: test this function\n    function moveEnemy(\n        uint[2] memory _a,\n        uint[2][2] memory _b,\n        uint[2] memory _c,\n        uint[4] memory _input\n    ) public {\n        moveCommonChecks(_a, _b, _c, _input);\n\n        address player = msg.sender;\n        uint oldLoc = _input[0];\n        uint newLoc = _input[1];\n        uint maxDist = _input[2];\n        uint shipsMoved = _input[3];\n\n        // planet at newLoc is owned by a player other than this one\n        address enemyOwner = ownerIfOccupiedElseZero(newLoc);\n        require (enemyOwner != address(0) && enemyOwner != player);\n\n        planets[oldLoc].population -= shipsMoved;\n        uint shipsLanded = moveShipsDecay(shipsMoved, maxDist);\n\n        // TODO: maybe want to implement additional defender's advantage.\n        // Currently ships annihilate 1 to 1\n        // (though attacking ships have already undergone decay)\n        if (planets[newLoc].population > shipsLanded) {\n            // attack reduces target planet's garrison but doesn't conquer it\n            planets[newLoc].population -= shipsLanded;\n        } else {\n            planets[newLoc].owner = player;\n            planets[newLoc].population = shipsLanded - planets[newLoc].population;\n        }\n\n        emit PlayerMoved(player, oldLoc, newLoc, maxDist, shipsMoved, planets[oldLoc], planets[newLoc]);\n    }\n\n}\n",
  "sourcePath": "/Users/bgu/darkforest/contracts/DarkForestV1Core.sol",
  "compiler": {
    "name": "solc",
    "version": "0.5.11+commit.c082d0b4.Emscripten.clang"
  },
  "schemaVersion": "3.0.16",
  "updatedAt": "2019-11-20T04:55:03.678Z",
  "devdoc": {
    "methods": {}
  },
  "userdoc": {
    "methods": {}
  }
}