{
  "contractName": "DarkForestV0",
  "abi": [
    {
      "constant": true,
      "inputs": [
        {
          "internalType": "uint256[2]",
          "name": "a",
          "type": "uint256[2]"
        },
        {
          "internalType": "uint256[2][2]",
          "name": "b",
          "type": "uint256[2][2]"
        },
        {
          "internalType": "uint256[2]",
          "name": "c",
          "type": "uint256[2]"
        },
        {
          "internalType": "uint256[3]",
          "name": "input",
          "type": "uint256[3]"
        }
      ],
      "name": "verifyMoveProof",
      "outputs": [
        {
          "internalType": "bool",
          "name": "",
          "type": "bool"
        }
      ],
      "payable": false,
      "stateMutability": "view",
      "type": "function"
    },
    {
      "constant": true,
      "inputs": [],
      "name": "maxX",
      "outputs": [
        {
          "internalType": "uint256",
          "name": "",
          "type": "uint256"
        }
      ],
      "payable": false,
      "stateMutability": "view",
      "type": "function"
    },
    {
      "constant": true,
      "inputs": [],
      "name": "maxY",
      "outputs": [
        {
          "internalType": "uint256",
          "name": "",
          "type": "uint256"
        }
      ],
      "payable": false,
      "stateMutability": "view",
      "type": "function"
    },
    {
      "constant": true,
      "inputs": [
        {
          "internalType": "address",
          "name": "",
          "type": "address"
        }
      ],
      "name": "playerLocations",
      "outputs": [
        {
          "internalType": "uint256",
          "name": "",
          "type": "uint256"
        }
      ],
      "payable": false,
      "stateMutability": "view",
      "type": "function"
    },
    {
      "constant": true,
      "inputs": [
        {
          "internalType": "uint256[2]",
          "name": "a",
          "type": "uint256[2]"
        },
        {
          "internalType": "uint256[2][2]",
          "name": "b",
          "type": "uint256[2][2]"
        },
        {
          "internalType": "uint256[2]",
          "name": "c",
          "type": "uint256[2]"
        },
        {
          "internalType": "uint256[1]",
          "name": "input",
          "type": "uint256[1]"
        }
      ],
      "name": "verifyInitProof",
      "outputs": [
        {
          "internalType": "bool",
          "name": "",
          "type": "bool"
        }
      ],
      "payable": false,
      "stateMutability": "view",
      "type": "function"
    },
    {
      "constant": true,
      "inputs": [
        {
          "internalType": "uint256",
          "name": "",
          "type": "uint256"
        }
      ],
      "name": "players",
      "outputs": [
        {
          "internalType": "address",
          "name": "",
          "type": "address"
        }
      ],
      "payable": false,
      "stateMutability": "view",
      "type": "function"
    },
    {
      "anonymous": false,
      "inputs": [
        {
          "indexed": false,
          "internalType": "address",
          "name": "player",
          "type": "address"
        },
        {
          "indexed": false,
          "internalType": "uint256",
          "name": "loc",
          "type": "uint256"
        }
      ],
      "name": "PlayerInitialized",
      "type": "event"
    },
    {
      "anonymous": false,
      "inputs": [
        {
          "indexed": false,
          "internalType": "address",
          "name": "player",
          "type": "address"
        },
        {
          "indexed": false,
          "internalType": "uint256",
          "name": "oldLoc",
          "type": "uint256"
        },
        {
          "indexed": false,
          "internalType": "uint256",
          "name": "newLoc",
          "type": "uint256"
        },
        {
          "indexed": false,
          "internalType": "uint256",
          "name": "maxDist",
          "type": "uint256"
        }
      ],
      "name": "PlayerMoved",
      "type": "event"
    },
    {
      "constant": true,
      "inputs": [],
      "name": "getNPlayers",
      "outputs": [
        {
          "internalType": "uint256",
          "name": "",
          "type": "uint256"
        }
      ],
      "payable": false,
      "stateMutability": "view",
      "type": "function"
    },
    {
      "constant": false,
      "inputs": [
        {
          "internalType": "uint256[2]",
          "name": "_a",
          "type": "uint256[2]"
        },
        {
          "internalType": "uint256[2][2]",
          "name": "_b",
          "type": "uint256[2][2]"
        },
        {
          "internalType": "uint256[2]",
          "name": "_c",
          "type": "uint256[2]"
        },
        {
          "internalType": "uint256[1]",
          "name": "_input",
          "type": "uint256[1]"
        }
      ],
      "name": "initializePlayer",
      "outputs": [],
      "payable": false,
      "stateMutability": "nonpayable",
      "type": "function"
    },
    {
      "constant": false,
      "inputs": [
        {
          "internalType": "uint256[2]",
          "name": "_a",
          "type": "uint256[2]"
        },
        {
          "internalType": "uint256[2][2]",
          "name": "_b",
          "type": "uint256[2][2]"
        },
        {
          "internalType": "uint256[2]",
          "name": "_c",
          "type": "uint256[2]"
        },
        {
          "internalType": "uint256[3]",
          "name": "_input",
          "type": "uint256[3]"
        }
      ],
      "name": "move",
      "outputs": [],
      "payable": false,
      "stateMutability": "nonpayable",
      "type": "function"
    }
  ],
  "bytecode": "0x6080604052601e600055601e60015534801561001a57600080fd5b506122088061002a6000396000f3fe608060405234801561001057600080fd5b50600436106100935760003560e01c80638a05b329116100665780638a05b329146104f15780638b04f6471461050f5780638c027bf21461052d578063e211c07214610585578063f71d96cb146106fe57610093565b806308a9dc95146100985780635a648465146101f957806370d20d3e14610372578063717be3c814610390575b600080fd5b6101f760048036036101608110156100af57600080fd5b8101908080604001906002806020026040519081016040528092919082600260200280828437600081840152601f19601f82011690508083019250505050505091929192908060800190600280602002604051908101604052809291906000905b82821015610164578382604002016002806020026040519081016040528092919082600260200280828437600081840152601f19601f82011690508083019250505050505081526020019060010190610110565b50505050919291929080604001906002806020026040519081016040528092919082600260200280828437600081840152601f19601f820116905080830192505050505050919291929080606001906003806020026040519081016040528092919082600360200280828437600081840152601f19601f820116905080830192505050505050919291929050505061076c565b005b610358600480360361016081101561021057600080fd5b8101908080604001906002806020026040519081016040528092919082600260200280828437600081840152601f19601f82011690508083019250505050505091929192908060800190600280602002604051908101604052809291906000905b828210156102c5578382604002016002806020026040519081016040528092919082600260200280828437600081840152601f19601f82011690508083019250505050505081526020019060010190610271565b50505050919291929080604001906002806020026040519081016040528092919082600260200280828437600081840152601f19601f820116905080830192505050505050919291929080606001906003806020026040519081016040528092919082600360200280828437600081840152601f19601f82011690508083019250505050505091929192905050506108fd565b604051808215151515815260200191505060405180910390f35b61037a610999565b6040518082815260200191505060405180910390f35b6104ef60048036036101208110156103a757600080fd5b8101908080604001906002806020026040519081016040528092919082600260200280828437600081840152601f19601f82011690508083019250505050505091929192908060800190600280602002604051908101604052809291906000905b8282101561045c578382604002016002806020026040519081016040528092919082600260200280828437600081840152601f19601f82011690508083019250505050505081526020019060010190610408565b50505050919291929080604001906002806020026040519081016040528092919082600260200280828437600081840152601f19601f820116905080830192505050505050919291929080602001906001806020026040519081016040528092919082600160200280828437600081840152601f19601f820116905080830192505050505050919291929050505061099f565b005b6104f9610b4b565b6040518082815260200191505060405180910390f35b610517610b58565b6040518082815260200191505060405180910390f35b61056f6004803603602081101561054357600080fd5b81019080803573ffffffffffffffffffffffffffffffffffffffff169060200190929190505050610b5e565b6040518082815260200191505060405180910390f35b6106e4600480360361012081101561059c57600080fd5b8101908080604001906002806020026040519081016040528092919082600260200280828437600081840152601f19601f82011690508083019250505050505091929192908060800190600280602002604051908101604052809291906000905b82821015610651578382604002016002806020026040519081016040528092919082600260200280828437600081840152601f19601f820116905080830192505050505050815260200190600101906105fd565b50505050919291929080604001906002806020026040519081016040528092919082600260200280828437600081840152601f19601f820116905080830192505050505050919291929080602001906001806020026040519081016040528092919082600160200280828437600081840152601f19601f8201169050808301925050505050509192919290505050610b76565b604051808215151515815260200191505060405180910390f35b61072a6004803603602081101561071457600080fd5b8101908080359060200190929190505050610c12565b604051808273ffffffffffffffffffffffffffffffffffffffff1673ffffffffffffffffffffffffffffffffffffffff16815260200191505060405180910390f35b610778848484846108fd565b61078157600080fd5b600033905060008260006003811061079557fe5b602002015190506000836001600381106107ab57fe5b602002015190506000846002600381106107c157fe5b6020020151905060008314156107d657600080fd5b82600260008673ffffffffffffffffffffffffffffffffffffffff1673ffffffffffffffffffffffffffffffffffffffff168152602001908152602001600020541461082157600080fd5b61082a82610c4e565b1561083457600080fd5b81600260008673ffffffffffffffffffffffffffffffffffffffff1673ffffffffffffffffffffffffffffffffffffffff168152602001908152602001600020819055507f3f403db52377649f2701976bb76f80d65ffca2a457d4e165dfe16568020af51f84848484604051808573ffffffffffffffffffffffffffffffffffffffff1673ffffffffffffffffffffffffffffffffffffffff16815260200184815260200183815260200182815260200194505050505060405180910390a15050505050505050565b6000606060036040519080825280602002602001820160405280156109315781602001602082028038833980820191505090505b50905060008090505b60038110156109795783816003811061094f57fe5b602002015182828151811061096057fe5b602002602001018181525050808060010191505061093a565b5061098e86868684610989610d03565b6111c0565b915050949350505050565b60005481565b6109ab84848484610b76565b6109b457600080fd5b60003390506000826000600181106109c857fe5b602002015190506000600260008473ffffffffffffffffffffffffffffffffffffffff1673ffffffffffffffffffffffffffffffffffffffff1681526020019081526020016000205414610a1b57600080fd5b610a2481610c4e565b15610a2e57600080fd5b60038290806001815401808255809150509060018203906000526020600020016000909192909190916101000a81548173ffffffffffffffffffffffffffffffffffffffff021916908373ffffffffffffffffffffffffffffffffffffffff1602179055505080600260008473ffffffffffffffffffffffffffffffffffffffff1673ffffffffffffffffffffffffffffffffffffffff168152602001908152602001600020819055507f5765df5ce7cf4175ef997923b4936159dcf3cea059434dab4643214d690a2b958282604051808373ffffffffffffffffffffffffffffffffffffffff1673ffffffffffffffffffffffffffffffffffffffff1681526020018281526020019250505060405180910390a1505050505050565b6000600380549050905090565b60015481565b60026020528060005260406000206000915090505481565b600060606001604051908082528060200260200182016040528015610baa5781602001602082028038833980820191505090505b50905060008090505b6001811015610bf257838160018110610bc857fe5b6020020151828281518110610bd957fe5b6020026020010181815250508080600101915050610bb3565b50610c0786868684610c02611341565b6111c0565b915050949350505050565b60038181548110610c1f57fe5b906000526020600020016000915054906101000a900473ffffffffffffffffffffffffffffffffffffffff1681565b600080600090505b600380549050811015610cf8576002600060038381548110610c7457fe5b9060005260206000200160009054906101000a900473ffffffffffffffffffffffffffffffffffffffff1673ffffffffffffffffffffffffffffffffffffffff1673ffffffffffffffffffffffffffffffffffffffff16815260200190815260200160002054831415610ceb576001915050610cfe565b8080600101915050610c56565b50600090505b919050565b610d0b612077565b60405180604001604052807e7f77a9a7a609e7343abd7960545efdeea3a24d9e6c4470f351925fdbaff35481526020017f2a389b8f9a79f7c5695d2a253a404f6107a84d60ced22c1cd62298c094ae88978152508160000181905250604051806040016040528060405180604001604052807f29fb2986f6e8e502abbafa6baf7351fb7a4f2ffff236e16d0e65cc3b41240bae81526020017f2c18e713eb081e27bf2bfccdb206a6ea10cfaf53945ec68cc15888aeabcc42d6815250815260200160405180604001604052807f1da2db4ee373a94ba68d10345b7e05a674620b6fbc3786cf029bd5a85385624e81526020017f2bba87cb502d313ee3b3cd8297cd6de608e8214c3e202f3ad44460011c888c1d8152508152508160200181905250604051806040016040528060405180604001604052807e0baf616fc251b876942d17aa7dcc5915a678fc4790429e094d8a3a22f97f0a81526020017f1310edb838a9432d53d6e2b84f1971f428ad15906835652eb8f8a751376a1dd1815250815260200160405180604001604052807f1ad3c60b4c281d6c623001ca3badf67c8c4848a142bd8b6234656971e05edda481526020017f17215770bc341a46d30506db88a3173bbd86586762cdfa1a8a59e7c3b3cd49e38152508152508160400181905250604051806040016040528060405180604001604052807f05c2e60ddf9d5789be4e6713bd0e98ca23271ca43fb54ae4ff18e0f89ccd3fc081526020017f3041ef9fe15096ecab48c875947f2abda84795a0a55afc0ef063fe94fc49e348815250815260200160405180604001604052807f1f9ee41ec9035ae71175114c497eb748c1428b7a80cfb286980e1c12913da26b81526020017f20ecb82839c16053fc7975583b9dadf94ebae46088373cbfc52a5482a13f04f281525081525081606001819052506004604051908082528060200260200182016040528015610ff057816020015b610fdd6120be565b815260200190600190039081610fd55790505b50816080018190525060405180604001604052807f157cfbc38d56588b102ea6a9f40be2d559da9ace818ff0a20e2caeb2ffd825a981526020017f21a8440f340ff47af5061f30291a8c16ff860fce34c64bd00362fd80b0275248815250816080015160008151811061105f57fe5b602002602001018190525060405180604001604052807f0628f17f853da807d7fa396e79ff955622930c71d0cd6eb7b2e16cf1c37aa52481526020017f2f2d6f75deb7b3398c3ef39e6b9627cf44495e5d64c29ec04e9211a07f06dadd81525081608001516001815181106110d057fe5b602002602001018190525060405180604001604052807f149fbb91ea4a1b8a3e5c2787312a376db5edc9567f5f4ea4e7795620ccc8dea681526020017f267209bcb923550c238014fca202add69c85fdf634b5b4f1f315d98920a29f83815250816080015160028151811061114157fe5b602002602001018190525060405180604001604052807f29a9120beaaee96fbf8b155c3e2baab5b6f70c658e8c14a8f6b6f28e5ffdb8d881526020017f0ec5ff746ed468d3158abd2d1380f6a0817d8fd6723264bbec6f6a7fe134250981525081608001516003815181106111b257fe5b602002602001018190525090565b60006111ca6120d8565b6040518060400160405280886000600281106111e257fe5b60200201518152602001886001600281106111f957fe5b60200201518152508160000181905250604051806040016040528060405180604001604052808960006002811061122c57fe5b602002015160006002811061123d57fe5b602002015181526020018960006002811061125457fe5b602002015160016002811061126557fe5b6020020151815250815260200160405180604001604052808960016002811061128a57fe5b602002015160006002811061129b57fe5b60200201518152602001896001600281106112b257fe5b60200201516001600281106112c357fe5b602002015181525081525081602001819052506040518060400160405280866000600281106112ee57fe5b602002015181526020018660016002811061130557fe5b60200201518152508160400181905250600061132285838661171e565b1415611332576001915050611338565b60009150505b95945050505050565b611349612077565b60405180604001604052807f29c31a30518f53985759594923e36a6e5c90b733636360fcf2dc5903f45270fb81526020017f0c6f7a4947f30295bae5baf8d11c123ed4c00f5953c2deb0b5df33474894a2628152508160000181905250604051806040016040528060405180604001604052807f2a8a52bc5e27a78001c60943a260bdf0e31048bb24870cf94ea31acf7fb6ed2e81526020017f29924af13c69555e4e66bd8ee02f9994c6ee75d7e563e16c8fb58fa269e13397815250815260200160405180604001604052807f1a33ba6ac5c58f020a2ed484d184ca0816b43818b273d0393ed64b9df1b3605081526020017f15da15bf526f0108502fcdfa097ec71f8036e869f1be09319f5950a6990e4ab38152508152508160200181905250604051806040016040528060405180604001604052807f1110b5924b22a106ffc0cce08b3b85c77e4c0b82f47d3b28601e88a33da4666781526020017f056b937deaa2a15fb4f4f7d5f379ed64fa321e2a2e4a1376bbe52bd4382f71d6815250815260200160405180604001604052807f147b8761c4f40e11032da2cdbf5ef247074ec6d4699d13a4341725083697193f81526020017f187e9d3a52b1d6ea1f1459edfe0714ea1221581d6bf8d7528c3dd363b787d66d8152508152508160400181905250604051806040016040528060405180604001604052807f01c5a961dda9a35a6f9add1f66639909bb6179b1136f0a721d3fd84156a3178b81526020017f13ff0916f1a7e9f4f6bd4816874a4ccc1b567a63d0f1781fc0d5e8157ed4cddc815250815260200160405180604001604052807f180f9c6e63ef86aa79b27bcf73ae9c3fa0082ecce90512bf49deda6c0d0e8d1281526020017f09b700236ad96566363b128fb1d6ed3c698ba8174b6858ff6eabf39e9ee13ab48152508152508160600181905250600260405190808252806020026020018201604052801561163057816020015b61161d6120be565b8152602001906001900390816116155790505b50816080018190525060405180604001604052807f0794a517ebc0717484453fa65303b6f84681073215c318d655eb861258059e2081526020017f2169c47c4fcf2a4d000ea69ec2209b4d1fa5d38c113be2c2aecbede9dcba7137815250816080015160008151811061169f57fe5b602002602001018190525060405180604001604052807f2e47dedb86a4db62c89fbffce2bb3e23b1c980a94b9c934e547f460e3506fa9b81526020017f2f8201ef95da05fa02bcf8e01b93417fb46a1d82b91f995e875f9a1998b12bf0815250816080015160018151811061171057fe5b602002602001018190525090565b6000807f30644e72e131a029b85045b68181585d2833e84879b9709143e1f593f000000190508260800151516001865101146117c2576040517f08c379a00000000000000000000000000000000000000000000000000000000081526004018080602001828103825260128152602001807f76657269666965722d6261642d696e707574000000000000000000000000000081525060200191505060405180910390fd5b6117ca61210b565b6040518060400160405280600081526020016000815250905060008090505b86518110156118c957828782815181106117ff57fe5b60200260200101511061187a576040517f08c379a000000000000000000000000000000000000000000000000000000000815260040180806020018281038252601f8152602001807f76657269666965722d6774652d736e61726b2d7363616c61722d6669656c640081525060200191505060405180910390fd5b6118ba826118b58760800151600185018151811061189457fe5b60200260200101518a85815181106118a857fe5b602002602001015161193f565b611a3a565b915080806001019150506117e9565b506118ec8185608001516000815181106118df57fe5b6020026020010151611a3a565b90506119226118fe8660000151611b54565b8660200151866000015187602001518589604001518b604001518b60600151611bee565b61193157600192505050611938565b6000925050505b9392505050565b61194761210b565b61194f612125565b83600001518160006003811061196157fe5b60200201818152505083602001518160016003811061197c57fe5b602002018181525050828160026003811061199357fe5b602002018181525050600060608360808460076107d05a03fa905080600081146119bc576119be565bfe5b5080611a32576040517f08c379a00000000000000000000000000000000000000000000000000000000081526004018080602001828103825260128152602001807f70616972696e672d6d756c2d6661696c6564000000000000000000000000000081525060200191505060405180910390fd5b505092915050565b611a4261210b565b611a4a612147565b836000015181600060048110611a5c57fe5b602002018181525050836020015181600160048110611a7757fe5b602002018181525050826000015181600260048110611a9257fe5b602002018181525050826020015181600360048110611aad57fe5b602002018181525050600060608360c08460066107d05a03fa90508060008114611ad657611ad8565bfe5b5080611b4c576040517f08c379a00000000000000000000000000000000000000000000000000000000081526004018080602001828103825260128152602001807f70616972696e672d6164642d6661696c6564000000000000000000000000000081525060200191505060405180910390fd5b505092915050565b611b5c61210b565b60007f30644e72e131a029b85045b68181585d97816a916871ca8d3c208c16d87cfd47905060008360000151148015611b99575060008360200151145b15611bbd576040518060400160405280600081526020016000815250915050611be9565b60405180604001604052808460000151815260200182856020015181611bdf57fe5b0683038152509150505b919050565b600060606004604051908082528060200260200182016040528015611c2d57816020015b611c1a6120be565b815260200190600190039081611c125790505b50905060606004604051908082528060200260200182016040528015611c6d57816020015b611c5a612169565b815260200190600190039081611c525790505b5090508a82600081518110611c7e57fe5b60200260200101819052508882600181518110611c9757fe5b60200260200101819052508682600281518110611cb057fe5b60200260200101819052508482600381518110611cc957fe5b60200260200101819052508981600081518110611ce257fe5b60200260200101819052508781600181518110611cfb57fe5b60200260200101819052508581600281518110611d1457fe5b60200260200101819052508381600381518110611d2d57fe5b6020026020010181905250611d428282611d52565b9250505098975050505050505050565b60008151835114611dcb576040517f08c379a00000000000000000000000000000000000000000000000000000000081526004018080602001828103825260168152602001807f70616972696e672d6c656e677468732d6661696c65640000000000000000000081525060200191505060405180910390fd5b6000835190506000600682029050606081604051908082528060200260200182016040528015611e0a5781602001602082028038833980820191505090505b50905060008090505b83811015611fb057868181518110611e2757fe5b602002602001015160000151826000600684020181518110611e4557fe5b602002602001018181525050868181518110611e5d57fe5b602002602001015160200151826001600684020181518110611e7b57fe5b602002602001018181525050858181518110611e9357fe5b602002602001015160000151600060028110611eab57fe5b6020020151826002600684020181518110611ec257fe5b602002602001018181525050858181518110611eda57fe5b602002602001015160000151600160028110611ef257fe5b6020020151826003600684020181518110611f0957fe5b602002602001018181525050858181518110611f2157fe5b602002602001015160200151600060028110611f3957fe5b6020020151826004600684020181518110611f5057fe5b602002602001018181525050858181518110611f6857fe5b602002602001015160200151600160028110611f8057fe5b6020020151826005600684020181518110611f9757fe5b6020026020010181815250508080600101915050611e13565b50611fb961218f565b6000602082602086026020860160086107d05a03fa90508060008114611fde57611fe0565bfe5b5080612054576040517f08c379a00000000000000000000000000000000000000000000000000000000081526004018080602001828103825260158152602001807f70616972696e672d6f70636f64652d6661696c6564000000000000000000000081525060200191505060405180910390fd5b60008260006001811061206357fe5b602002015114159550505050505092915050565b6040518060a0016040528061208a6120be565b8152602001612097612169565b81526020016120a4612169565b81526020016120b1612169565b8152602001606081525090565b604051806040016040528060008152602001600081525090565b60405180606001604052806120eb6120be565b81526020016120f8612169565b81526020016121056120be565b81525090565b604051806040016040528060008152602001600081525090565b6040518060600160405280600390602082028038833980820191505090505090565b6040518060800160405280600490602082028038833980820191505090505090565b604051806040016040528061217c6121b1565b81526020016121896121b1565b81525090565b6040518060200160405280600190602082028038833980820191505090505090565b604051806040016040528060029060208202803883398082019150509050509056fea265627a7a723158208b0d2855636d851a1451c6903ba8f626021818d127ac4f0ea460f46054cf0a5864736f6c634300050b0032",
  "source": "pragma solidity ^0.5.8;\nimport \"./Verifier.sol\";\n\ncontract DarkForestV0 is Verifier {\n\n    uint public maxX = 30;\n    uint public maxY = 30;\n\n    event PlayerInitialized(address player, uint loc);\n    event PlayerMoved(address player, uint oldLoc, uint newLoc, uint maxDist);\n\n    mapping (address => uint) public playerLocations;\n    address[] public players;\n\n    function _isOccupied(uint _r) private view returns (bool) {\n        for (uint i = 0; i < players.length; i++) {\n            if (_r == playerLocations[players[i]]) {\n                return true;\n            }\n        }\n        return false;\n    }\n\n    function getNPlayers() public view returns (uint) {\n        return players.length;\n    }\n\n    function initializePlayer(\n        uint[2] memory _a,\n        uint[2][2] memory _b,\n        uint[2] memory _c,\n        uint[1] memory _input\n    ) public {\n        require(verifyInitProof(_a, _b, _c, _input));\n        address player = msg.sender;\n        uint loc = _input[0];\n        require(playerLocations[player] == 0); // player doesn't have account\n        require (!_isOccupied(loc)); // loc not occupied\n        players.push(player);\n        playerLocations[player] = loc;\n\n        emit PlayerInitialized(player, loc);\n    }\n\n    function move(\n        uint[2] memory _a,\n        uint[2][2] memory _b,\n        uint[2] memory _c,\n        uint[3] memory _input\n    ) public {\n        require(verifyMoveProof(_a, _b, _c, _input));\n        address player = msg.sender;\n        uint oldLoc = _input[0];\n        uint newLoc = _input[1];\n        uint maxDist = _input[2];\n        require(oldLoc != 0); // player has account\n        require(playerLocations[player] == oldLoc); // player at oldLoc\n        require(!_isOccupied(newLoc)); // newLoc empty\n        playerLocations[player] = newLoc;\n\n        emit PlayerMoved(player, oldLoc, newLoc, maxDist);\n    }\n\n}\n",
  "sourcePath": "/Users/bgu/darkforest/contracts/DarkForestV0Core.sol",
  "compiler": {
    "name": "solc",
    "version": "0.5.11+commit.c082d0b4.Emscripten.clang"
  },
  "schemaVersion": "3.0.16",
  "updatedAt": "2019-11-20T04:55:03.650Z",
  "devdoc": {
    "methods": {}
  },
  "userdoc": {
    "methods": {}
  }
}