{
  "contractName": "DarkForest",
  "abi": [
    {
      "constant": true,
      "inputs": [
        {
          "internalType": "uint256[2]",
          "name": "a",
          "type": "uint256[2]"
        },
        {
          "internalType": "uint256[2][2]",
          "name": "b",
          "type": "uint256[2][2]"
        },
        {
          "internalType": "uint256[2]",
          "name": "c",
          "type": "uint256[2]"
        },
        {
          "internalType": "uint256[3]",
          "name": "input",
          "type": "uint256[3]"
        }
      ],
      "name": "verifyMoveProof",
      "outputs": [
        {
          "internalType": "bool",
          "name": "",
          "type": "bool"
        }
      ],
      "payable": false,
      "stateMutability": "view",
      "type": "function"
    },
    {
      "constant": true,
      "inputs": [],
      "name": "maxX",
      "outputs": [
        {
          "internalType": "uint256",
          "name": "",
          "type": "uint256"
        }
      ],
      "payable": false,
      "stateMutability": "view",
      "type": "function"
    },
    {
      "constant": true,
      "inputs": [],
      "name": "maxY",
      "outputs": [
        {
          "internalType": "uint256",
          "name": "",
          "type": "uint256"
        }
      ],
      "payable": false,
      "stateMutability": "view",
      "type": "function"
    },
    {
      "constant": true,
      "inputs": [
        {
          "internalType": "address",
          "name": "",
          "type": "address"
        }
      ],
      "name": "playerLocations",
      "outputs": [
        {
          "internalType": "uint256",
          "name": "",
          "type": "uint256"
        }
      ],
      "payable": false,
      "stateMutability": "view",
      "type": "function"
    },
    {
      "constant": true,
      "inputs": [
        {
          "internalType": "uint256[2]",
          "name": "a",
          "type": "uint256[2]"
        },
        {
          "internalType": "uint256[2][2]",
          "name": "b",
          "type": "uint256[2][2]"
        },
        {
          "internalType": "uint256[2]",
          "name": "c",
          "type": "uint256[2]"
        },
        {
          "internalType": "uint256[1]",
          "name": "input",
          "type": "uint256[1]"
        }
      ],
      "name": "verifyInitProof",
      "outputs": [
        {
          "internalType": "bool",
          "name": "",
          "type": "bool"
        }
      ],
      "payable": false,
      "stateMutability": "view",
      "type": "function"
    },
    {
      "constant": true,
      "inputs": [
        {
          "internalType": "uint256",
          "name": "",
          "type": "uint256"
        }
      ],
      "name": "players",
      "outputs": [
        {
          "internalType": "address",
          "name": "",
          "type": "address"
        }
      ],
      "payable": false,
      "stateMutability": "view",
      "type": "function"
    },
    {
      "anonymous": false,
      "inputs": [
        {
          "indexed": false,
          "internalType": "address",
          "name": "player",
          "type": "address"
        },
        {
          "indexed": false,
          "internalType": "uint256",
          "name": "loc",
          "type": "uint256"
        }
      ],
      "name": "PlayerInitialized",
      "type": "event"
    },
    {
      "anonymous": false,
      "inputs": [
        {
          "indexed": false,
          "internalType": "address",
          "name": "player",
          "type": "address"
        },
        {
          "indexed": false,
          "internalType": "uint256",
          "name": "oldLoc",
          "type": "uint256"
        },
        {
          "indexed": false,
          "internalType": "uint256",
          "name": "newLoc",
          "type": "uint256"
        },
        {
          "indexed": false,
          "internalType": "uint256",
          "name": "maxDist",
          "type": "uint256"
        }
      ],
      "name": "PlayerMoved",
      "type": "event"
    },
    {
      "constant": true,
      "inputs": [],
      "name": "getNPlayers",
      "outputs": [
        {
          "internalType": "uint256",
          "name": "",
          "type": "uint256"
        }
      ],
      "payable": false,
      "stateMutability": "view",
      "type": "function"
    },
    {
      "constant": false,
      "inputs": [
        {
          "internalType": "uint256[2]",
          "name": "_a",
          "type": "uint256[2]"
        },
        {
          "internalType": "uint256[2][2]",
          "name": "_b",
          "type": "uint256[2][2]"
        },
        {
          "internalType": "uint256[2]",
          "name": "_c",
          "type": "uint256[2]"
        },
        {
          "internalType": "uint256[1]",
          "name": "_input",
          "type": "uint256[1]"
        }
      ],
      "name": "initializePlayer",
      "outputs": [],
      "payable": false,
      "stateMutability": "nonpayable",
      "type": "function"
    },
    {
      "constant": false,
      "inputs": [
        {
          "internalType": "uint256[2]",
          "name": "_a",
          "type": "uint256[2]"
        },
        {
          "internalType": "uint256[2][2]",
          "name": "_b",
          "type": "uint256[2][2]"
        },
        {
          "internalType": "uint256[2]",
          "name": "_c",
          "type": "uint256[2]"
        },
        {
          "internalType": "uint256[3]",
          "name": "_input",
          "type": "uint256[3]"
        }
      ],
      "name": "move",
      "outputs": [],
      "payable": false,
      "stateMutability": "nonpayable",
      "type": "function"
    }
  ],
  "bytecode": "0x6080604052601e600055601e60015534801561001a57600080fd5b5061220a8061002a6000396000f3fe608060405234801561001057600080fd5b50600436106100935760003560e01c80638a05b329116100665780638a05b329146104f15780638b04f6471461050f5780638c027bf21461052d578063e211c07214610585578063f71d96cb146106fe57610093565b806308a9dc95146100985780635a648465146101f957806370d20d3e14610372578063717be3c814610390575b600080fd5b6101f760048036036101608110156100af57600080fd5b8101908080604001906002806020026040519081016040528092919082600260200280828437600081840152601f19601f82011690508083019250505050505091929192908060800190600280602002604051908101604052809291906000905b82821015610164578382604002016002806020026040519081016040528092919082600260200280828437600081840152601f19601f82011690508083019250505050505081526020019060010190610110565b50505050919291929080604001906002806020026040519081016040528092919082600260200280828437600081840152601f19601f820116905080830192505050505050919291929080606001906003806020026040519081016040528092919082600360200280828437600081840152601f19601f820116905080830192505050505050919291929050505061076c565b005b610358600480360361016081101561021057600080fd5b8101908080604001906002806020026040519081016040528092919082600260200280828437600081840152601f19601f82011690508083019250505050505091929192908060800190600280602002604051908101604052809291906000905b828210156102c5578382604002016002806020026040519081016040528092919082600260200280828437600081840152601f19601f82011690508083019250505050505081526020019060010190610271565b50505050919291929080604001906002806020026040519081016040528092919082600260200280828437600081840152601f19601f820116905080830192505050505050919291929080606001906003806020026040519081016040528092919082600360200280828437600081840152601f19601f82011690508083019250505050505091929192905050506108fd565b604051808215151515815260200191505060405180910390f35b61037a610999565b6040518082815260200191505060405180910390f35b6104ef60048036036101208110156103a757600080fd5b8101908080604001906002806020026040519081016040528092919082600260200280828437600081840152601f19601f82011690508083019250505050505091929192908060800190600280602002604051908101604052809291906000905b8282101561045c578382604002016002806020026040519081016040528092919082600260200280828437600081840152601f19601f82011690508083019250505050505081526020019060010190610408565b50505050919291929080604001906002806020026040519081016040528092919082600260200280828437600081840152601f19601f820116905080830192505050505050919291929080602001906001806020026040519081016040528092919082600160200280828437600081840152601f19601f820116905080830192505050505050919291929050505061099f565b005b6104f9610b4b565b6040518082815260200191505060405180910390f35b610517610b58565b6040518082815260200191505060405180910390f35b61056f6004803603602081101561054357600080fd5b81019080803573ffffffffffffffffffffffffffffffffffffffff169060200190929190505050610b5e565b6040518082815260200191505060405180910390f35b6106e4600480360361012081101561059c57600080fd5b8101908080604001906002806020026040519081016040528092919082600260200280828437600081840152601f19601f82011690508083019250505050505091929192908060800190600280602002604051908101604052809291906000905b82821015610651578382604002016002806020026040519081016040528092919082600260200280828437600081840152601f19601f820116905080830192505050505050815260200190600101906105fd565b50505050919291929080604001906002806020026040519081016040528092919082600260200280828437600081840152601f19601f820116905080830192505050505050919291929080602001906001806020026040519081016040528092919082600160200280828437600081840152601f19601f8201169050808301925050505050509192919290505050610b76565b604051808215151515815260200191505060405180910390f35b61072a6004803603602081101561071457600080fd5b8101908080359060200190929190505050610c12565b604051808273ffffffffffffffffffffffffffffffffffffffff1673ffffffffffffffffffffffffffffffffffffffff16815260200191505060405180910390f35b610778848484846108fd565b61078157600080fd5b600033905060008260006003811061079557fe5b602002015190506000836001600381106107ab57fe5b602002015190506000846002600381106107c157fe5b6020020151905060008314156107d657600080fd5b82600260008673ffffffffffffffffffffffffffffffffffffffff1673ffffffffffffffffffffffffffffffffffffffff168152602001908152602001600020541461082157600080fd5b61082a82610c4e565b1561083457600080fd5b81600260008673ffffffffffffffffffffffffffffffffffffffff1673ffffffffffffffffffffffffffffffffffffffff168152602001908152602001600020819055507f3f403db52377649f2701976bb76f80d65ffca2a457d4e165dfe16568020af51f84848484604051808573ffffffffffffffffffffffffffffffffffffffff1673ffffffffffffffffffffffffffffffffffffffff16815260200184815260200183815260200182815260200194505050505060405180910390a15050505050505050565b6000606060036040519080825280602002602001820160405280156109315781602001602082028038833980820191505090505b50905060008090505b60038110156109795783816003811061094f57fe5b602002015182828151811061096057fe5b602002602001018181525050808060010191505061093a565b5061098e86868684610989610d03565b6111c2565b915050949350505050565b60005481565b6109ab84848484610b76565b6109b457600080fd5b60003390506000826000600181106109c857fe5b602002015190506000600260008473ffffffffffffffffffffffffffffffffffffffff1673ffffffffffffffffffffffffffffffffffffffff1681526020019081526020016000205414610a1b57600080fd5b610a2481610c4e565b15610a2e57600080fd5b60038290806001815401808255809150509060018203906000526020600020016000909192909190916101000a81548173ffffffffffffffffffffffffffffffffffffffff021916908373ffffffffffffffffffffffffffffffffffffffff1602179055505080600260008473ffffffffffffffffffffffffffffffffffffffff1673ffffffffffffffffffffffffffffffffffffffff168152602001908152602001600020819055507f5765df5ce7cf4175ef997923b4936159dcf3cea059434dab4643214d690a2b958282604051808373ffffffffffffffffffffffffffffffffffffffff1673ffffffffffffffffffffffffffffffffffffffff1681526020018281526020019250505060405180910390a1505050505050565b6000600380549050905090565b60015481565b60026020528060005260406000206000915090505481565b600060606001604051908082528060200260200182016040528015610baa5781602001602082028038833980820191505090505b50905060008090505b6001811015610bf257838160018110610bc857fe5b6020020151828281518110610bd957fe5b6020026020010181815250508080600101915050610bb3565b50610c0786868684610c02611343565b6111c2565b915050949350505050565b60038181548110610c1f57fe5b906000526020600020016000915054906101000a900473ffffffffffffffffffffffffffffffffffffffff1681565b600080600090505b600380549050811015610cf8576002600060038381548110610c7457fe5b9060005260206000200160009054906101000a900473ffffffffffffffffffffffffffffffffffffffff1673ffffffffffffffffffffffffffffffffffffffff1673ffffffffffffffffffffffffffffffffffffffff16815260200190815260200160002054831415610ceb576001915050610cfe565b8080600101915050610c56565b50600090505b919050565b610d0b612079565b60405180604001604052807f2471a068452e6db6b2993fc9be392246679c7223e16de6c89a0f8b572b3f8e9481526020017f0ababa04cfe7b46ce8d2884649a00e8d752da6575e3883047e616046a87401808152508160000181905250604051806040016040528060405180604001604052807f1acefb8fb2b9291c47775d3929e1e102bae382a8b8b3196f5dffe70961fa84b781526020017f1df717d9cd748e1400ed69e6073d33fd33c48ff37f1e5c2a05322c9b7f58ae3f815250815260200160405180604001604052807f145357b9b618d3ba354b6544c87c69e24ca75692e570c413d37e0db5ae6dbc1181526020017f1c4d6146ed4deec1659ae328e138230280798cce2de335de42372ea583f7d7828152508152508160200181905250604051806040016040528060405180604001604052807f2bc2de4b3a59906db4885bb5947e1c237a0c6d109897ace8d7dd7f4ef4b7a2d181526020017f2f957146fbeeb5caf933e1305ebffabf8322bf734553b0a1ea679d3747d3162b815250815260200160405180604001604052807f0140f07153bf8d297956356d25c1c5220cc846a17c19b69d686d47d6f056162981526020017f264d92ef9436918be661b40df973cfc6bf308cbde8d71b0cce2e7c99c92df8bc8152508152508160400181905250604051806040016040528060405180604001604052807f190e6ea49129c1cd5f013d639d786a7b267f660168852332c118365347c9949081526020017f2c912418c51b585cbe5f4a2f45aa609067e34c57558d30bc4f42164df4f98975815250815260200160405180604001604052807f07e66b54b2c386f6d01b6a9967c2783d1dad3a3ccc71fccedc7ab170f4b6a1eb81526020017f169c56041bd382ffb242029f853e3eb693beded21a33b0d030a4365ca8d5151d81525081525081606001819052506004604051908082528060200260200182016040528015610ff257816020015b610fdf6120c0565b815260200190600190039081610fd75790505b50816080018190525060405180604001604052807f09457dfc62668afd454bfbf2b2cfa665de437f4c48681676e12bcf11b724b49381526020017f072ae2536fb7a05ded1097cf2d6cd67b76d266fc9f790237bcd8388c27f77847815250816080015160008151811061106157fe5b602002602001018190525060405180604001604052807f0e12b57d031f8ed5c6657bef5c2bec1775f8ed932291ec7deb740f3b515df29a81526020017f2ae07578beb9d365c29a3d7dd2b745cbdb200803e34336b6c4e4e6938e9a958e81525081608001516001815181106110d257fe5b602002602001018190525060405180604001604052807f2af77c6ea02f0e234f6998ce0d039fd5832af9aeab3a5b375cae2204ea29702f81526020017f05a8839b6f90e15f30e89f80de43ead004cab23fc2faeb0a02f557182e8c3c15815250816080015160028151811061114357fe5b602002602001018190525060405180604001604052807f2b2871cf4998a42a78cebaa87dbd9428a95923878f6609a0d6e1b5ad36fbbf2b81526020017f115d05c817fd671f022d14e177491dfdb548000fcc4d2f187315a918b544cd2381525081608001516003815181106111b457fe5b602002602001018190525090565b60006111cc6120da565b6040518060400160405280886000600281106111e457fe5b60200201518152602001886001600281106111fb57fe5b60200201518152508160000181905250604051806040016040528060405180604001604052808960006002811061122e57fe5b602002015160006002811061123f57fe5b602002015181526020018960006002811061125657fe5b602002015160016002811061126757fe5b6020020151815250815260200160405180604001604052808960016002811061128c57fe5b602002015160006002811061129d57fe5b60200201518152602001896001600281106112b457fe5b60200201516001600281106112c557fe5b602002015181525081525081602001819052506040518060400160405280866000600281106112f057fe5b602002015181526020018660016002811061130757fe5b602002015181525081604001819052506000611324858386611720565b141561133457600191505061133a565b60009150505b95945050505050565b61134b612079565b60405180604001604052807f0a9669708355f64bb472160c8edc6d0d36a88cdd0a7a0dba1cd2a7a1b6817bc681526020017f2f71502863111a4ab21bac77a461e757cff2f9d7f058851c4cf215f4de07b9558152508160000181905250604051806040016040528060405180604001604052807f1ec69bb9eec5a3dc633946fff563a6d9a64a3aadd7c1f3dde5e4f17a521d4cde81526020017f2781946c2b80eb3a4371dc8bd92149b27fafbf992759d55120d4402ab192d1e3815250815260200160405180604001604052807f26777eb17eb18e960648a690c309cea8b6f23a9dd006b2a5058c45011d7cd01b81526020017f0b0e5135bbd3d74da791e9aaa491580e7c0758ae22bfd60abec1077fdfc323fe8152508152508160200181905250604051806040016040528060405180604001604052807f0cea742fa1b84ba23d398310844e88d527cde3c13d8436ee75ad3bdd2ad8369581526020017f0116d98e7764cf4b191cafaba2e99b3b20d0e1d6c6dd7b29dc86b14f11ad8859815250815260200160405180604001604052807f0719c266ce6ed4812ee14b322a304a0459cc9bcf8de24c1c3f6d3c4ec1e37bab81526020017f2dab1656b87ca19cdf17b7152d3750173efa2565a7c931430d3e1ec6f5f79f8d8152508152508160400181905250604051806040016040528060405180604001604052807f0cbdffbfc2585c13812d01760b6718d81b59e5bb73cba655ea9db5fabd9923d481526020017f0463508c2254e9120e389adf8328f7406e9a64f3cf00ef247d11b7fe64ca5874815250815260200160405180604001604052807f1515b7b1a1e1d01eb37193bb2f127c889d14d3d3f6385789484d3e00f2942fe481526020017f030f58f31c0bbacc1f545154f10e8558769a35004d0d16c5dd9682e5cf15c27d8152508152508160600181905250600260405190808252806020026020018201604052801561163257816020015b61161f6120c0565b8152602001906001900390816116175790505b50816080018190525060405180604001604052807f0d4ce9dd50968fbd6183b6e988c77bf4026d6e4f1dc3dfb5c6688a426903ab0181526020017f29f8ac7854459aa3547f50fea35da9854e440746870a17788f36dff7e6a4018881525081608001516000815181106116a157fe5b602002602001018190525060405180604001604052807f2299b02fcce825577674484f9928b55c4fa345dd4f44f4d6bcece5243071922081526020017f2545e57e150ace4a0f23af93c275f7a11fdfd7537cf522c4d709fbc59da2e844815250816080015160018151811061171257fe5b602002602001018190525090565b6000807f30644e72e131a029b85045b68181585d2833e84879b9709143e1f593f000000190508260800151516001865101146117c4576040517f08c379a00000000000000000000000000000000000000000000000000000000081526004018080602001828103825260128152602001807f76657269666965722d6261642d696e707574000000000000000000000000000081525060200191505060405180910390fd5b6117cc61210d565b6040518060400160405280600081526020016000815250905060008090505b86518110156118cb578287828151811061180157fe5b60200260200101511061187c576040517f08c379a000000000000000000000000000000000000000000000000000000000815260040180806020018281038252601f8152602001807f76657269666965722d6774652d736e61726b2d7363616c61722d6669656c640081525060200191505060405180910390fd5b6118bc826118b78760800151600185018151811061189657fe5b60200260200101518a85815181106118aa57fe5b6020026020010151611941565b611a3c565b915080806001019150506117eb565b506118ee8185608001516000815181106118e157fe5b6020026020010151611a3c565b90506119246119008660000151611b56565b8660200151866000015187602001518589604001518b604001518b60600151611bf0565b6119335760019250505061193a565b6000925050505b9392505050565b61194961210d565b611951612127565b83600001518160006003811061196357fe5b60200201818152505083602001518160016003811061197e57fe5b602002018181525050828160026003811061199557fe5b602002018181525050600060608360808460076107d05a03fa905080600081146119be576119c0565bfe5b5080611a34576040517f08c379a00000000000000000000000000000000000000000000000000000000081526004018080602001828103825260128152602001807f70616972696e672d6d756c2d6661696c6564000000000000000000000000000081525060200191505060405180910390fd5b505092915050565b611a4461210d565b611a4c612149565b836000015181600060048110611a5e57fe5b602002018181525050836020015181600160048110611a7957fe5b602002018181525050826000015181600260048110611a9457fe5b602002018181525050826020015181600360048110611aaf57fe5b602002018181525050600060608360c08460066107d05a03fa90508060008114611ad857611ada565bfe5b5080611b4e576040517f08c379a00000000000000000000000000000000000000000000000000000000081526004018080602001828103825260128152602001807f70616972696e672d6164642d6661696c6564000000000000000000000000000081525060200191505060405180910390fd5b505092915050565b611b5e61210d565b60007f30644e72e131a029b85045b68181585d97816a916871ca8d3c208c16d87cfd47905060008360000151148015611b9b575060008360200151145b15611bbf576040518060400160405280600081526020016000815250915050611beb565b60405180604001604052808460000151815260200182856020015181611be157fe5b0683038152509150505b919050565b600060606004604051908082528060200260200182016040528015611c2f57816020015b611c1c6120c0565b815260200190600190039081611c145790505b50905060606004604051908082528060200260200182016040528015611c6f57816020015b611c5c61216b565b815260200190600190039081611c545790505b5090508a82600081518110611c8057fe5b60200260200101819052508882600181518110611c9957fe5b60200260200101819052508682600281518110611cb257fe5b60200260200101819052508482600381518110611ccb57fe5b60200260200101819052508981600081518110611ce457fe5b60200260200101819052508781600181518110611cfd57fe5b60200260200101819052508581600281518110611d1657fe5b60200260200101819052508381600381518110611d2f57fe5b6020026020010181905250611d448282611d54565b9250505098975050505050505050565b60008151835114611dcd576040517f08c379a00000000000000000000000000000000000000000000000000000000081526004018080602001828103825260168152602001807f70616972696e672d6c656e677468732d6661696c65640000000000000000000081525060200191505060405180910390fd5b6000835190506000600682029050606081604051908082528060200260200182016040528015611e0c5781602001602082028038833980820191505090505b50905060008090505b83811015611fb257868181518110611e2957fe5b602002602001015160000151826000600684020181518110611e4757fe5b602002602001018181525050868181518110611e5f57fe5b602002602001015160200151826001600684020181518110611e7d57fe5b602002602001018181525050858181518110611e9557fe5b602002602001015160000151600060028110611ead57fe5b6020020151826002600684020181518110611ec457fe5b602002602001018181525050858181518110611edc57fe5b602002602001015160000151600160028110611ef457fe5b6020020151826003600684020181518110611f0b57fe5b602002602001018181525050858181518110611f2357fe5b602002602001015160200151600060028110611f3b57fe5b6020020151826004600684020181518110611f5257fe5b602002602001018181525050858181518110611f6a57fe5b602002602001015160200151600160028110611f8257fe5b6020020151826005600684020181518110611f9957fe5b6020026020010181815250508080600101915050611e15565b50611fbb612191565b6000602082602086026020860160086107d05a03fa90508060008114611fe057611fe2565bfe5b5080612056576040517f08c379a00000000000000000000000000000000000000000000000000000000081526004018080602001828103825260158152602001807f70616972696e672d6f70636f64652d6661696c6564000000000000000000000081525060200191505060405180910390fd5b60008260006001811061206557fe5b602002015114159550505050505092915050565b6040518060a0016040528061208c6120c0565b815260200161209961216b565b81526020016120a661216b565b81526020016120b361216b565b8152602001606081525090565b604051806040016040528060008152602001600081525090565b60405180606001604052806120ed6120c0565b81526020016120fa61216b565b81526020016121076120c0565b81525090565b604051806040016040528060008152602001600081525090565b6040518060600160405280600390602082028038833980820191505090505090565b6040518060800160405280600490602082028038833980820191505090505090565b604051806040016040528061217e6121b3565b815260200161218b6121b3565b81525090565b6040518060200160405280600190602082028038833980820191505090505090565b604051806040016040528060029060208202803883398082019150509050509056fea265627a7a7231582040878f8b3b6214cfbafdb9fef20ff60c635532f53e47b6688cdde49a7812115464736f6c634300050b0032",
  "source": "pragma solidity ^0.5.8;\nimport \"./Verifier.sol\";\n\ncontract DarkForest is Verifier {\n\n    uint public maxX = 30;\n    uint public maxY = 30;\n\n    event PlayerInitialized(address player, uint loc);\n    event PlayerMoved(address player, uint oldLoc, uint newLoc, uint maxDist);\n\n    mapping (address => uint) public playerLocations;\n    address[] public players;\n\n    function _isOccupied(uint _r) private view returns (bool) {\n        for (uint i = 0; i < players.length; i++) {\n            if (_r == playerLocations[players[i]]) {\n                return true;\n            }\n        }\n        return false;\n    }\n\n    function getNPlayers() public view returns (uint) {\n        return players.length;\n    }\n\n    function initializePlayer(\n        uint[2] memory _a,\n        uint[2][2] memory _b,\n        uint[2] memory _c,\n        uint[1] memory _input\n    ) public {\n        require(verifyInitProof(_a, _b, _c, _input));\n        address player = msg.sender;\n        uint loc = _input[0];\n        require(playerLocations[player] == 0); // player doesn't have account\n        require (!_isOccupied(loc)); // loc not occupied\n        players.push(player);\n        playerLocations[player] = loc;\n\n        emit PlayerInitialized(player, loc);\n    }\n\n    function move(\n        uint[2] memory _a,\n        uint[2][2] memory _b,\n        uint[2] memory _c,\n        uint[3] memory _input\n    ) public {\n        require(verifyMoveProof(_a, _b, _c, _input));\n        address player = msg.sender;\n        uint oldLoc = _input[0];\n        uint newLoc = _input[1];\n        uint maxDist = _input[2];\n        require(oldLoc != 0); // player has account\n        require(playerLocations[player] == oldLoc); // player at oldLoc\n        require(!_isOccupied(newLoc)); // newLoc empty\n        playerLocations[player] = newLoc;\n\n        emit PlayerMoved(player, oldLoc, newLoc, maxDist);\n    }\n\n}\n",
  "sourcePath": "/Users/bgu/darkforest/contracts/DarkForestV0Core.sol",
  "compiler": {
    "name": "solc",
    "version": "0.5.11+commit.c082d0b4.Emscripten.clang"
  },
  "schemaVersion": "3.0.16",
  "updatedAt": "2019-10-17T03:57:34.711Z",
  "devdoc": {
    "methods": {}
  },
  "userdoc": {
    "methods": {}
  }
}